:1000000000800020BD010000C133010085330100E4
:1000100085330100853301008533010085330100FC
:10002000853301008533010085330100C1330100B0
:10003000C133010085330100C13301007533010074
:10004000C1330100C1330100C1330100C1330100DC
:10005000C1330100C1330100C1330100C1330100CC
:10006000C1330100C1330100C1330100C1330100BC
:10007000C1330100C1330100C1330100C1330100AC
:10008000C1330100C1330100C1330100C13301009C
:10009000C1330100C1330100C1330100C13301008C
:1000A000C1330100C1330100C1330100C13301007C
:1000B000C1330100C1330100C1330100C13301006C
:1000C000C1330100C1330100C1330100C13301005C
:1000D000C1330100C1330100C1330100C13301004C
:1000E000C1330100C1330100C1330100C13301003C
:1000F000C1330100C1330100C133010011F500001B
:10010000C133010065EE0000C1330100C1330100BD
:10011000C1330100C1330100C1330100C13301000B
:10012000C1330100C1330100C1330100C1330100FB
:10013000C1330100C1330100C1330100C1330100EB
:10014000C1330100C1330100C1330100C1330100DB
:10015000C1330100C1330100C1330100C1330100CB
:10016000C133010085390100C1330100C1330100F1
:10017000C1330100C1330100C1330100C1330100AB
:10018000C1330100C1330100C1330100C13301009B
:10019000C1330100C1330100C1330100C13301008B
:1001A000C1330100C1330100C1330100C13301007B
:1001B000C1330100C1330100C1330100574B4CF280
:1001C000205210B51A804DF628121A8000BF00BFC9
:1001D00013F0FAF8524B4FF010621A60514A9A60CD
:1001E000514ADA60A3F53043203B1A6812F480725A
:1001F00004D14E490A604FF4A8521A604C4B1A7849
:10020000110703D51A7842F008021A70494B4A4C7C
:100210004A482A221A704A4A00239918A14203D256
:10022000195899500433F8E7464B474900228B424E
:1002300002D243F8042BFAE74448454900235A58B0
:100240001A500433B3F5DE7FF9D1424B424A802184
:1002500003F8011B9342FBD1404B3C4A1A60404BD0
:100260000A221A70A3F5805324225A70A0221A7011
:100270009A799207FCD59A79D406FCD4394A9379B5
:1002800003F00C03082B374BF9D103221A714022DB
:100290005A719A799006FCD5324A9179314B4906C8
:1002A000FBD5314A314911600221516020221A7078
:1002B0009A7902F00C020C2AFAD12D4B2D4A1A60C1
:1002C0002D4B2E4A1A6000225A60072243F8042C54
:1002D0002B4AC3F80C2D62B613F016FA134B1B68A9
:1002E000DA0705D5274813F08BF8274B274A1A6001
:1002F000274B1B785B0609D5234C244A236893427D
:1003000004D1204813F07CF80023236016F0E6FDAA
:1003100013F060F814F0A0F8FEE700BF0E200540CF
:1003200030800440823F04000100002B14D00340C1
:1003300002D0074000E00740C894FF1F3C060200BF
:100340006087FF1FC894FF1F280E00200082FF1F38
:100350000000000000E400E05FE400E008ED00E0E1
:100360000050064000400640448004400000030165
:1003700004800440C010050014E000E0FF76010096
:10038000000020200455F35F1CE00340A5C3945AED
:1003900000F00740FFFFFFFFFFFFFFFFFFFFFFFF32
:1003A000FFFFFFFFFFFFFFFFFFFFFFFFFFFFFFFF5D
:1003B000FFFFFFFFFFFFFFFFFFFFFFFFFFFFFFFF4D
:1003C000FFFFFFFFFFFFFFFFFFFFFFFFFFFFFFFF3D
:1003D000FFFFFFFFFFFFFFFFFFFFFFFFFFFFFFFF2D
:1003E000FFFFFFFFFFFFFFFFFFFFFFFFFFFFFFFF1D
:1003F000FFFFFFFFFFFFFFFFFFFFFFFFFFFFFFFF0D
:10040000FFFFFFFFFFFFFFFFFFFFFFFFFEFFFFFFFD
:1004100010B5054C237833B9044B13B10448AFF33E
:1004200000800123237010BDC894FF1F000000004E
:100430003406020008B5064B1BB106480649AFF367
:1004400000800648036813B1054B03B1984708BD07
:100450000000000034060200CC94FF1FC894FF1F68
:1004600000000000014B0360704700BF40E4010042
:10047000704700BF704700BF704700BF704700BFA4
:10048000014B0360704700BF60E40100F8B54568A8
:1004900004460F464FF07E50294616F0F9F9A16840
:1004A00016F000FB39460646284616F0FBFA0146D0
:1004B000304616F0EFF9A060F8BD00BF014B0360B5
:1004C000704700BF78E40100034B81611B68036142
:1004D00001224260704700BFD40C0020002303615A
:1004E00043607047704700BF704700BFC1607047EE
:1004F000014B0360704700BF78E401002DE9F84329
:10050000436B0446C069D3F8008016F077FA0746BB
:100510003946404616F0BCF90021054616F07EFC2F
:1005200000283FD0A946206A16F068FA06463146F0
:10053000484616F055FC88B93946404616F06EFC20
:10054000314648BB284616F0A5F9616A16F0AAFAAA
:1005500016F06EFC16F052FA064600E00026206BFC
:1005600016F04CFA294616F095F916F061FCE36A8C
:100570005A42904214DB9842A8BF1846206316F0F6
:100580003DFAA16A16F08EFA314616F083F916F09C
:100590004FFCE060BDE8F883284616F079F9D4E70F
:1005A0001046EBE705F10049BDE700BF2DE9F0413A
:1005B0000446C0690E4616F021FA80464146304690
:1005C00016F066F916F034FC276A80EAE073A3EBB4
:1005D000E073BB42054610DB4046314616F000FC96
:1005E00020BBE81916F00AFA616A16F05BFA16F0F9
:1005F0001FFC16F003FA064600E00026226BE36AB1
:1006000015445A42954213DB9D42B4BF2846184612
:10061000206316F0F3F9A16A16F044FA314616F099
:1006200039F916F005FCE060BDE8F081E81BD9E778
:100630001046EDE7014B0360704700BF78E401000E
:1006400010B5436AC1690446186816F02BFA16F013
:10065000EFFBE06010BD00BF10B504460846E1693D
:1006600016F020FA16F0E4FBE06010BD014B0360C9
:10067000704700BF78E40100014B0360704700BF82
:1006800078E401002DE9F041194B056A1A68446AC3
:10069000521BA24228D31968866A491B321991421B
:1006A0001FD2C069D3F8008016F0A8F90746C5EB41
:1006B0000800001B16F09EF90446304616F09AF921
:1006C0000146204616F0A2FA01464FF07E5016F081
:1006D000DFF80146384616F0E5F916F0A9FBBDE84B
:1006E000F0810020BDE8F081C069BDE8F08100BF65
:1006F000D40C00200023C360704700BFC06870475F
:10070000F8B504460D460846E16816F0C1F82769B9
:1007100006464FF07C51384616F0C4F90146304683
:1007200016F07CFB78B94FF07C5107F1004016F0D1
:10073000B9F90146304616F053FB10B1636A013334
:100740006362E560F8BD636AE560013B6362F8BD22
:1007500010B50446406A16F051F9216916F0A2F965
:10076000E16816F097F8606110BD00BFD0F89800FE
:10077000704700BF70B504464FF07E50E56D2946C6
:1007800016F086F8216E16F08DF9D4F8A4100646FE
:10079000284616F087F90146304616F07BF82066A9
:1007A00070BD00BF08B5D0F8A00016F041FB08BD31
:1007B000D0F8AC00704700BFD0F8B000704700BF61
:1007C00008B5D0F8A80016F033FB08BD014B036054
:1007D000704700BF40E40100054AC0F85821C0F846
:1007E000F420C0F8B0208265024A0260704700BF62
:1007F00078E4010040E40100014B0360704700BF52
:1008000040E40100014B0360704700BF40E4010079
:10081000014B0360704700BF78E4010010B5034B43
:100820000360044613F024FE204610BD40E401009E
:1008300010B5034B0360044613F01AFE204610BDAA
:1008400060E4010010B5034B0360044613F010FE92
:10085000204610BD78E4010010B5034B0360044648
:1008600013F006FE204610BD78E4010010B5034BDE
:100870000360044613F0FCFD204610BD78E401003F
:1008800010B5034B0360044613F0F2FD204610BD83
:1008900078E4010010B5034B0360044613F0E8FD53
:1008A000204610BD78E4010010B50446024B0360F9
:1008B00013F0DEFD204610BD40E4010010B50446F3
:1008C000024B036013F0D4FD204610BD40E401004C
:1008D00010B50446024B036013F0CAFD204610BD5C
:1008E00040E4010010B50446064BC0F85831C0F88A
:1008F000F430C0F8B0308365034B036013F0B8FDEB
:10090000204610BD78E4010040E4010010B5044623
:10091000024B036013F0ACFD204610BD78E40100EB
:1009200038B504460D4612F0B9FE01232061A561D9
:10093000636038BD10B50446D0F88C010BF0AEF8FA
:10094000D4F898000BF0AAF8D4F894010BF0A6F8AC
:10095000E0690BF0A3F8606A0BF0A0F8206C0BF0D4
:100960009DF80023E367D4F8DC000BF097F8D4F887
:1009700024010BF093F8D4F840010BF08FF800231A
:10098000C4F86831C4F85C3110BD00BF10B504462E
:10099000006A0BF083F8206ABDE8104008F066BFDB
:1009A00010B50446806E08F061FFD4F8A80008F086
:1009B0005DFFD4F8BC0008F059FFD4F8D00008F06F
:1009C00055FFD4F8E40008F051FFD4F8F80008F01F
:1009D0004DFFD4F8880008F049FFA06A08F046FFF0
:1009E000A06C08F043FF206A08F040FFD4F818011B
:1009F00008F03CFFD4F82001BDE8104008F036BFF5
:100A000010B50446D0F84C0308F030FFD4F860036A
:100A100008F02CFFD4F8740308F028FFD4F8DC01A8
:100A20000BF03CF8E0690BF099FDE06C0BF036F848
:100A3000206C0BF093FDD4F884000BF02FF8A06E1F
:100A40000BF02CF8A06A0BF089FD606B0BF086FDB3
:100A5000D4F8A0000BF022F8D4F8D4010BF01EF863
:100A6000D4F8240308F002FFD4F8380308F0FEFE9F
:100A7000D4F8BC000BF012F8D4F8D8000BF00EF844
:100A8000D4F8F4000BF00AF8D4F810010BF006F8D3
:100A9000D4F82C010BF002F8D4F848010AF0FEFF5C
:100AA000D4F864010AF0FAFFD4F880010AF0F6FFE6
:100AB000D4F89C010AF0F2FFD4F8B8010AF0EEFF76
:100AC000D4F8E40108F0D2FED4F8040208F0CEFE17
:100AD000D4F8240208F0CAFED4F8440208F0C6FE96
:100AE000D4F8640208F0C2FED4F8840208F0BEFE16
:100AF000D4F8A40208F0BAFED4F8C40208F0B6FE96
:100B0000D4F8E40208F0B2FED4F80403BDE81040C3
:100B100008F0ACBE2DE9F0410446406A0D4615F0E0
:100B2000B7FE0021064616F079F9002852D030466B
:100B30002A4916F073F9002846D16369312B3BDD51
:100B4000666865623146E560284615F0ABFF3146C0
:100B500005464FF07E5015F09BFE216A15F0A2FF6E
:100B60000146284615F096FEA66A206231460546E3
:100B700016F036F908B1A5622E46E76A28463946CE
:100B800016F04CF908B1E5622F462846314615F0BB
:100B90007FFE31468046384615F07AFE21690546CB
:100BA000404615F07FFF294616F030F8C4F834802F
:100BB0002063E561BDE8F081013363612562656210
:100BC000A562E562BDE8F081A36965620133A361B6
:100BD000BDE8F08106F10040AAE700BF0000C8426E
:100BE0000346406840B11A89DB685042834203DB08
:100BF0009A42B4BF10461846704700BF10B5064C65
:100C00000649236820465B681D2298472046BDE8B8
:100C1000104013F031BC00BFCC0D00206CE6010089
:100C200038B50446084BC0F82831084A026083658D
:100C3000074D2B685B6828460649142298472846CA
:100C400013F01AFC204638BD60E40100B8E501004D
:100C5000CC0D00208CE6010070B5056AAC00204682
:100C600012F05CFB0646601C12F058FB0304A01C4B
:100C700003EB066612F052FB06EB0026E01C12F0B6
:100C80004DFB304415F0BAFE01462846BDE87040E1
:100C900008F03EBD38B54368154603B938BD0A4C67
:100CA0000A49236811225B6820469847284617F0B6
:100CB00031F82368024629465B682046984720465B
:100CC000BDE8384013F0D8BBCC0D0020A4E60100ED
:100CD0002DE9F04F066A8169D0F814B0D0F81CA055
:100CE000274F85B0B50004462846039112F016FB45
:100CF0008046681C12F012FB0304A81C03EB086872
:100D000012F00CFB08EB0029E81C12F007FB03991A
:100D100009EB00054FF0FF3852460B46009531466F
:100D20005846CDF8048047F8265009F035F8256A72
:100D3000D4F814A0D4F81C90A669AC00204612F098
:100D4000EDFA8346601C12F0E9FA0304A01C03EBE1
:100D50000B6B12F0E3FA0BEB002BE01C12F0DEFA47
:100D60000BEB00048DE81001504629464A463346F5
:100D700047F8254008F0D4F805B0BDE8F08F00BF73
:100D800044D1FF1F2DE9F04104468AB0D0F81C0180
:100D9000D4F82011674F09F08DFEA36993E8030092
:100DA0000BF078FED4F8D400D4F8CC80D4F8D0502E
:100DB00016F03EF829460246404608F0E7F9D4F816
:100DC000C000D4F8B880D4F8BC5016F031F82946E9
:100DD0000246404608F0DAF9D4F8E800D4F8E450C6
:100DE000D4F8E08016F024F829460246404608F080
:100DF000CDF9D4F88C50D4F88400D4F88810D4F805
:100E00009420D4F898304FF0FF368DE8600008F059
:100E100087F8D4F8FC50D4F8F400D4F8F810D4F8DB
:100E20000421D4F808318DE8600008F079F863698E
:100E30000025D3F8200100952A462B4601950295FE
:100E400003950495059506950795089505210FF0DE
:100E500093FE63692A46D3F8240100952B46019539
:100E60000295039504950595069507950895052126
:100E70000FF082FEE56A606AA16A626BA36B8DE87F
:100E8000600008F04DF8E56C606CA16C626DA36DBC
:100E90008DE8600008F044F8E56EA36FA16E626F04
:100EA000606E8DE8600008F03BF8D4F8AC00D4F830
:100EB000A460D4F8A85015F0BBFF2946024630467E
:100EC00008F064F96369216A5868E0610AF044FB3C
:100ED000E069216A09F0EEFDD4F81401D4F8181184
:100EE00009F0E8FD6369D3F82021D3F8243192F8A2
:100EF000560093F85630184415F080FDD4F8B03001
:100F000018603A68D4F8B430D31A462B02D80AB025
:100F1000BDE8F081D4F8A830C4F8AC00014618460A
:100F200008F02CFC0028F2D03B68C4F8B4300AB0BA
:100F3000BDE8F081D40C0020F8B59F4DD0F82431E5
:100F40002A68D31A102B04465BD9D0F810212968DF
:100F500028686369C4F82411821A462AD3F8A000CD
:100F600000F2AC802968226ED3F89800924E8A1A5B
:100F7000462A00F2B6802968D4F88020D3F89C0075
:100F80008D4E8A1A462A00F2CD802968226CD3F849
:100F90009400894E8A1A462A00F2B6802A68C4F85C
:100FA00028211A68844E1269184690472A68D4F896
:100FB000A030D31A462B00F2C6806269D4F8EC3018
:100FC000D2F8A81019602A68D4F8F0307A4ED31AF3
:100FD000462B4DD82A68D4F8DC30774ED31A462BEE
:100FE00052D82A68D4F8C830734ED31A462B58D832
:100FF0006369D4F83021D3F88830934218BFC4F81D
:1010000030312A68D4F82C316B4ED31AB3F57A7F7D
:1010100000D8F8BD32686369C4F82C21986F15F0C8
:10102000E9FCD4F8D83018603268D4F8DC30D31A30
:10103000462B00F2AA8063695F4E586F15F0DAFC08
:10104000D4F8C43018602A68D4F8C830D31A462BB4
:1010500000F28C806369DA6F5A676369D3F8802085
:101060009A6762690023D3676269C2F88030F8BD6D
:10107000D4F8E400C4F8E81008F080FB0028A9D0F8
:101080003368C4F8F030A5E7D4F8D830D4F8D000ED
:10109000196808F073FB0028A3D03368C4F8DC306B
:1010A0009FE7D4F8C430D4F8BC00196808F066FB98
:1010B00000289DD03368C4F8C83099E715F0B8FE11
:1010C000C4F8FC0015F09AFCD4F8F86001463046EC
:1010D00008F054FB002867D02A686369C4F810211F
:1010E00040E7364915F0DEFC15F0A2FEE06415F08D
:1010F00085FCA76C0146384608F040FB002857D015
:1011000032686369226636E7E06215F077FCA76A09
:101110000146384608F032FB002847D03268636940
:1011200022643BE715F084FEE06615F067FCA76ECD
:101130000146384608F022FB00283BD0326863693C
:10114000C4F8802021E715F073FEC4F88C0015F078
:1011500055FCD4F888700146384608F00FFB00288B
:101160003FF42BAF3368C4F8A03026E7D4F8BC3086
:10117000C4F8C0000146184608F000FB00283FF400
:1011800069AF3368C4F8C83064E7D4F8D030C4F825
:10119000D4000146184608F0F1FA00283FF44BAF9E
:1011A0003368C4F8DC3046E76369DBE66369F5E67B
:1011B0006369E0E66369E8E6D40C002000007A4445
:1011C00070B5436804460BB9E36070BD12F066FA6F
:1011D000A369226933B14FF47A71821A01FB03F3D8
:1011E0009A4227D812F05AFA2369656AC01AB0FBEE
:1011F000F5F305FB130015F0FDFB0646284615F038
:10120000F9FB0146304615F001FD1349E06115F088
:1012100049FC15F033FEE26A238C32F810100F4AB5
:1012200013FB01F382FB03121A44DB17C3EB6223A7
:10123000E36070BD0A4D0B492B680D225B682846A0
:101240009847284613F018F923682046DB6898472A
:101250000023636070BD00BF00A03B4503082080F1
:10126000CC0D0020B8E60100F0B50446FF2083B0A5
:101270000146024603460BF0FBFE0020FF23014619
:1012800002460BF03DFFD4F85003D4F84873D4F86D
:101290004C53E34E15F0CCFD29460246384607F084
:1012A00075FFD4F86403D4F85C73D4F8605315F078
:1012B000BFFD29460246384607F068FFD4F8780398
:1012C000D4F87073D4F8745315F0B2FD2946024671
:1012D000384607F05BFFD4F82803D4F82073D4F81D
:1012E000245315F0A5FD29460246384607F04EFF67
:1012F000D4F83C03D4F83473D4F8385315F098FD7F
:1013000029460246384607F041FFD4F8E851D4F8A0
:10131000E001D4F8E411D4F8F021D4F8F4310095C8
:101320004FF0FF35019507F0FBFDD4F80872D4F8B3
:101330000002D4F80412D4F81022D4F81432019523
:10134000009707F0EDFDD4F82872D4F82002D4F805
:101350002412D4F83022D4F834320195009707F0E3
:10136000DFFDD4F84872D4F84002D4F84412D4F81F
:101370005022D4F854320195009707F0D1FDD4F8EB
:101380006872D4F86002D4F86412D4F87022D4F8E9
:1013900074320195009707F0C3FDD4F88872D4F831
:1013A0008002D4F88412D4F89022D4F894320195B3
:1013B000009707F0B5FDD4F8A872D4F8A002D4F8CD
:1013C000A412D4F8B022D4F8B4320195009707F0F3
:1013D000A7FDD4F8C872D4F8C002D4F8C412D4F867
:1013E000D022D4F8D4320195009707F099FDD4F8B3
:1013F000E872D4F8E002D4F8E412D4F8F022D4F879
:10140000F4320195009707F08BFDD4F80873D4F8F7
:101410001433D4F80003D4F80413D4F8102301953E
:10142000009707F07DFD04F1180007C80AF0D2FD0F
:1014300004F1240007C80AF0CDFD04F1300007C80C
:101440000AF0C8FD04F13C0007C80AF0C3FD256D91
:10145000E76DA06CE16C626DA36D8DE8A00008F0F3
:101460009BFCE56EA76F606EA16E226F636F8DE8C7
:10147000A00008F091FCD4F88850D4F89470D4F807
:101480008C20D4F89030D4F88000D4F884108DE803
:10149000A00008F081FCD4F8D801D4F8DC1109F0E0
:1014A0005FF8D4F8A450D4F8B070D4F89C00D4F805
:1014B000A010D4F8A820D4F8AC308DE8A00008F033
:1014C0006BFCD4F8C050D4F8CC70D4F8B800D4F881
:1014D000BC10D4F8C420D4F8C8308DE8A00008F0BF
:1014E0005BFCD4F8DC50D4F8E870D4F8D400D4F81D
:1014F000D810D4F8E020D4F8E4308DE8A00008F04B
:101500004BFCD4F8F850D4F80471D4F8F000D4F8B7
:10151000F410D4F8FC20D4F800318DE8A00008F0D5
:101520003BFCD4F81451D4F82071D4F80C01D4F851
:101530001011D4F81821D4F81C318DE8A00008F05F
:101540002BFCD4F83051D4F83C71D4F82801D4F8ED
:101550002C11D4F83421D4F838318DE8A00008F0EB
:101560001BFCD4F84C51D4F85871D4F84401D4F889
:101570004811D4F85021D4F854318DE8A00008F077
:101580000BFCD4F86851D4F87471D4F86001D4F825
:101590006411D4F86C21D4F870318DE8A00008F003
:1015A000FBFBD4F88451D4F89071D4F87C01D4F8C2
:1015B0008011D4F88821D4F88C318DE8A00008F08F
:1015C000EBFBD4F8A051D4F8AC71D4F89801D4F85E
:1015D0009C11D4F8A421D4F8A8318DE8A00008F01B
:1015E000DBFBD4F8BC51D4F8C871D4F8C431D4F8BA
:1015F000C021D4F8B401D4F8B8118DE8A00008F0E7
:10160000CBFB0848C4F8D0010025D4F8D41109F068
:1016100001FDD4F8BC00D4F8C410C4F8C85003E0ED
:1016200044D1FF1F80ED01002A4608F0F1FCD4F8F8
:10163000D800D4F8E010C4F8E4502A4608F0E8FCDA
:10164000D4F8F400D4F8FC10C4F800512A4608F08D
:10165000DFFCD4F81001D4F81811C4F81C512A4644
:1016600008F0D6FCD4F82C01D4F83411C4F8385161
:101670002A4608F0CDFCD4F84801D4F85011C4F83B
:1016800054512A4608F0C4FCD4F86401D4F86C1113
:10169000C4F870512A4608F0BBFCD4F88001D4F895
:1016A0008811C4F88C512A4608F0B2FCD4F89C0189
:1016B000D4F8A411C4F8A8512A4608F0A9FC2A4677
:1016C000D4F8B801D4F8C011C4F8C45108F0A0FC93
:1016D000D4F8BC00294607F083F9D4F8BC30D4F81C
:1016E000D80056F82330C4F8C030294607F078F9FE
:1016F000D4F8D830D4F8F40056F82330C4F8DC30ED
:10170000294607F06DF9D4F8F430D4F8100156F8F2
:101710002330C4F8F830294607F062F9D4F81031C4
:10172000D4F82C0156F82330C4F81431294607F0B8
:1017300057F9D4F82C31D4F8480156F82330C4F8BE
:101740003031294607F04CF9D4F84831D4F8640117
:1017500056F82330C4F84C31294607F041F9D4F843
:101760006431D4F8800156F82330C4F86831294632
:1017700007F036F9D4F88031D4F89C0156F82330BC
:10178000C4F88431294607F02BF9D4F89C31D4F8F9
:10179000B80156F82330C4F8A031294607F020F9E3
:1017A000D4F8B83156F82330C4F8BC3103B0F0BDDA
:1017B0002DE9F0470446B44DDFF8DC82B34E11F05A
:1017C0006DFFE36CB24A55F823302365CC2707FB45
:1017D00003871060FB687A6803EB430302EBC302E4
:1017E00092F8310015F006F9D4F82C3318603268FD
:1017F000D4F83033D31A462B00F23B82E36CDFF887
:101800008C9255F823302365CC2202FB0382FB68BF
:10181000526803EB430302EBC30393F8320015F065
:10182000E9F8D4F8403318603268D4F84433D31A56
:10183000462B00F20E82E36C306855F823202265B7
:10184000CC2101FB0281D7F80CE04968DFF83C921B
:101850000EEB4E0201EBC20ED4F8FC21811A462990
:101860009EF8330000F2508255F823202265CC21E7
:1018700001FB0281D7F80CE049683068DFF80C9270
:101880000EEB4E0201EBC20ED4F81C22811A46293F
:101890009EF8340000F2848255F823202265CC2182
:1018A00001FB0281D7F80CE049683068DFF8DC9171
:1018B0000EEB4E0201EBC20ED4F83C22811A4629EF
:1018C0009EF8350000F2598255F823202265CC217C
:1018D00001FB0281D7F80CE049683068DFF8AC9171
:1018E0000EEB4E0201EBC20ED4F85C22811A46299F
:1018F0009EF8360000F22E8255F823202265CC2176
:1019000001FB0281D7F80CE049683068DFF87C9170
:101910000EEB4E0201EBC20ED4F87C22811A46294E
:101920009EF8370000F2038255F823202265CC216F
:1019300001FB0281D7F80CE049683068DFF84C9170
:101940000EEB4E0201EBC20ED4F89C22811A4629FE
:101950009EF8380000F2B58255F823202265CC218C
:1019600001FB0281D7F80CE049683068DFF81C9170
:101970000EEB4E0201EBC20ED4F8BC22811A4629AE
:101980009EF8390000F28C8255F823202265CC2184
:1019900001FB0281D7F80CE049683068DFF8EC9071
:1019A0000EEB4E0201EBC20ED4F8DC22811A46295E
:1019B0009EF83A0000F2638255F823202265CC217C
:1019C00001FB0281D7F80CE049683068DFF8BC9071
:1019D0000EEB4E0201EBC20ED4F8FC22811A46290E
:1019E0009EF83B0000F2398255F823302365CC2263
:1019F00002FB0388FB68D8F804003168D4F81C2384
:101A0000224F03EB430300EBC3038A1A462A93F8E1
:101A10003C0000F211823268D4F858331B4FD31ABD
:101A2000462B00F2FB813268D4F86C33174FD31A7F
:101A3000462B00F2E5813268D4F88033134FD31A75
:101A4000462B00F2C081D4F8A030124A55F823305A
:101A50001168C4F8A4308B4200F0F18013600F2BA2
:101A600000F23387DFE813F00A057B058A05F005ED
:101A7000B2062407EA0331077304F10431070705AE
:101A80005002250331071A0044D1FF1FD40C002057
:101A9000F094FF1F6487FF1F44030020D148FF27F5
:101AA000C4F8D001D4F8D41109F0B4FA3A46D4F805
:101AB000BC00D4F8C410C4F8C87008F0A9FA3A46BB
:101AC000D4F8D800D4F8E010C4F8E47008F0A0FA14
:101AD0003A46D4F8F400D4F8FC10C4F8007108F0C9
:101AE00097FA3A46D4F81001D4F81811C4F81C71CA
:101AF000002708F08DFAD4F82C01D4F83411C4F87A
:101B000038713A4608F084FAD4F84801D4F85011F4
:101B1000C4F854713A4608F07BFAD4F86401D4F85A
:101B20006C11C4F870713A4608F072FAD4F880016A
:101B3000D4F88811C4F88C713A4608F069FAD4F8E0
:101B40009C01D4F8A411C4F8A8713A4608F060FAD0
:101B50003A46D4F8B801D4F8C011C4F8C47108F0FA
:101B600057FAD4F8BC00012106F03AFFD4F8BC3093
:101B7000D4F8D80055F82330C4F8C030012106F05D
:101B80002FFFD4F8D830D4F8F40055F82330C4F837
:101B9000DC30012106F024FFD4F8F430D4F8100131
:101BA00055F82330C4F8F830012106F019FFD4F8B5
:101BB0001031D4F82C0155F82330C4F814313946CB
:101BC00006F00EFFD4F82C31D4F8480155F8233034
:101BD000C4F83031394606F003FFD4F84831D4F860
:101BE000640155F82330C4F84C31394606F0F8FE4C
:101BF000D4F86431D4F8800155F82330C4F8683142
:101C0000394606F0EDFED4F88031D4F89C0155F841
:101C10002330C4F88431394606F0E2FED4F89C3112
:101C2000D4F8B80155F82330C4F8A031394606F08D
:101C3000D7FED4F8B83155F82330C4F8BC316A4D1A
:101C400011F02CFD2B68694AC01A904220D8BDE8DB
:101C5000F087D4F83833C4F83C030146184607F03F
:101C60008DFD00283FF4E7ADD9F80030C4F84433C7
:101C7000E1E5D4F82433C4F828030146184607F0F8
:101C80007DFD00283FF4BAAD3368C4F83033B5E5C4
:101C900011F004FDDFF864812860D8F80000544D8D
:101CA00014F0A8FED4F8543318603268D4F85833CE
:101CB000D31A462B00F210864E4F4D4D3868002344
:101CC000C8F8003014F096FED4F868331860326813
:101CD000D4F86C33D31A462B00F22B86464DDFF82E
:101CE0001081286800233B6014F084FED4F87C3314
:101CF00018603268D4F88033D31A462B00F2088675
:101D000000232B60BDE8F087C4F8E80114F076FEEC
:101D1000D4F8E4A10146504607F030FD002800F059
:101D2000E780D9F80020E36CC4F8FC219CE5C4F8F6
:101D3000680214F063FED4F864A20146504607F02E
:101D40001DFD002800F0D280D9F80020E36CC4F813
:101D50007C22E9E5C4F8480214F050FED4F844A20D
:101D60000146504607F00AFD002800F0BD80D9F872
:101D70000020E36CC4F85C22BEE5C4F8280214F02D
:101D80003DFED4F824A20146504607F0F7FC002897
:101D900000F0A880D9F80020E36CC4F83C2293E559
:101DA000C4F8080214F02AFED4F804A201465046F2
:101DB00007F0E4FC002800F0A380D9F80020E36CD1
:101DC000C4F81C2268E5D4F87C33D4F8740319688D
:101DD00007F0D4FC00283FF436AE3B68C4F88033EB
:101DE00031E600BF84E70100EC94FF1F3F420F0083
:101DF000D40C0020FC94FF1FF894FF1F0095FF1FD8
:101E0000D4F86833D4F86003196807F0B7FC0028E9
:101E10003FF411AE3B68C4F86C330CE6D4F854338D
:101E2000D4F84C03196807F0A9FC00283FF4FBAD77
:101E30003B68C4F85833F6E5C4F8080314F0DEFD37
:101E4000D4F804830146404607F098FC00283FF48C
:101E5000E2AD3B68C4F81C33DDE5C4F8E80214F0D9
:101E6000CDFDD4F8E4A20146504607F087FC0028D7
:101E700044D0D9F80020E36CC4F8FC22B4E5C4F8DF
:101E8000C80214F0BBFDD4F8C4A20146504607F0C6
:101E900075FC88B3D9F80020E36CC4F8DC228BE52C
:101EA000C4F8A80214F0AAFDD4F8A4A20146504632
:101EB00007F064FCF0B1D9F80020E36CC4F8BC2250
:101EC00062E5C4F8880214F099FDD4F884A20146B2
:101ED000504607F053FCA8B1D9F80020E36CC4F8D1
:101EE0009C2239E5E36CEFE4E36C05E5E36C1BE56C
:101EF000E36CB9E4E36C47E5E36C5DE5E36C73E543
:101F0000E36CC9E4E36C27E5CA48C4F8D0010127B3
:101F1000D4F8D41109F07EF8D4F8BC00D4F8C41079
:101F2000C4F8C8703A4608F073F80422D4F8D80010
:101F3000D4F8E010C4F8E42008F06AF808224FF062
:101F4000FF08D4F8F400D4F8FC10C4F8002108F01D
:101F50005FF84246D4F81001D4F81811C4F81C8177
:101F600008F056F84246D4F82C01D4F83411C4F8DD
:101F7000388108F04DF84246D4F84801D4F85011A1
:101F8000C4F8548108F044F84246D4F86401D4F807
:101F90006C11C4F870814FF0000808F039F8D4F8DB
:101FA0008001D4F88811C4F88C81424608F030F8DA
:101FB000D4F89C01D4F8A411C4F8A881424608F0D2
:101FC00027F84246D4F8B801D4F8C011C4F8C48147
:101FD00008F01EF83946D4F8BC0006F001FDD4F82C
:101FE000BC30D4F8D80055F82330C4F8C030394696
:101FF00006F0F6FCD4F8D830D4F8F40055F82330C5
:10200000C4F8DC30394606F0EBFCD4F8F430D4F8F0
:10201000100155F82330C4F8F830394606F0E0FCDA
:10202000D4F81031D4F82C0155F82330C4F8143109
:10203000394606F0D5FCD4F82C31D4F8480155F8CF
:102040002330C4F83031394606F0CAFCD4F84831A0
:10205000D4F8640155F82330C4F84C31394606F001
:10206000BFFCD4F86431D4F8800155F82330C4F8AB
:102070006831414606F0B4FCD4F88031D4F89C01B4
:1020800055F82330C4F88431414606F0A9FCD4F851
:102090009C31D4F8B80155F82330C4F8A03141463A
:1020A00006F09EFCD4F8B83155F82330C4F8BC31A2
:1020B000C5E56148C4F8D0010027D4F8D41108F070
:1020C000A9FFD4F8BC00D4F8C410C4F8C8703A46CC
:1020D00007F09EFFD4F8D800D4F8E010C4F8E470FC
:1020E0003A4607F095FFD4F8F400D4F8FC10C4F891
:1020F00000713A4607F08CFF4FF00108D4F8100148
:10210000D4F81811C4F81C713A4607F081FFD4F8CE
:102110002C01D4F83411C4F83881424607F078FF16
:10212000D4F84801D4F85011C4F854713A4607F075
:102130006FFFD4F86401D4F86C11C4F870713A469A
:1021400007F066FFD4F88001D4F88811C4F88C71C8
:102150003A4607F05DFFD4F89C01D4F8A411C4F806
:10216000A8713A4607F054FF4246D4F8B801D4F8B3
:10217000C011C4F8C48107F04BFF3946D4F8BC0045
:1021800006F02EFCD4F8BC30D4F8D80055F8233033
:10219000C4F8C030394606F023FCD4F8D830D4F85F
:1021A000F40055F82330C4F8DC30394606F018FC4A
:1021B000D4F8F430D4F8100155F82330C4F8F830CE
:1021C000394606F00DFCD4F81031D4F82C0155F83E
:1021D0002330C4F81431414606F002FCD4F82C3107
:1021E000D4F8480155F82330C4F83031394606F0A8
:1021F000F7FBD4F84831D4F8640155F82330C4F81B
:102200004C31394606F0ECFBD4F86431D4F8800147
:1022100055F82330C4F86831394606F0E1FBD4F8AC
:102220008031D4F89C0155F82330C4F88431394604
:102230002BE700BF64E7010074E70100C948C4F858
:10224000D001D4F8D41108F0E5FE02224FF00108C5
:10225000D4F8BC00D4F8C410C4F8C820002707F094
:10226000D7FED4F8D800D4F8E010C4F8E480424691
:1022700007F0CEFED4F8F400D4F8FC10C4F80071D6
:102280003A4607F0C5FED4F81001D4F81811C4F886
:102290001C713A4607F0BCFED4F82C01D4F8341176
:1022A000C4F838713A4607F0B3FED4F84801D4F8C0
:1022B0005011C4F854713A4607F0AAFED4F86401EC
:1022C000D4F86C11C4F870713A4607F0A1FED4F846
:1022D0008001D4F88811C4F88C713A4607F098FE52
:1022E000D4F89C01D4F8A411C4F8A8713A4607F0B8
:1022F0008FFED4F8B801D4F8C011C4F8C4713A46BE
:1023000007F086FE4146D4F8BC0006F069FBD4F81D
:10231000BC30D4F8D80055F82330C4F8C03041465A
:1023200006F05EFBD4F8D830D4F8F40055F823302A
:10233000C4F8DC30394606F053FBD4F8F430D4F856
:10234000100155F82330C4F8F83039462DE486489A
:10235000C4F8D001D4F8D41108F05CFEFF22D4F800
:10236000BC00D4F8C410C4F8C82007F051FED4F85B
:10237000D800D4F8E01080224FF00108C4F8E4201F
:10238000002707F045FED4F8F400D4F8FC10C4F898
:102390000081424607F03CFED4F81001D4F8181131
:1023A000C4F81C713A4607F033FED4F82C01D4F877
:1023B0003411C4F838713A4607F02AFED4F84801BF
:1023C000D4F85011C4F854713A4607F021FED4F8FD
:1023D0006401D4F86C11C4F870713A4607F018FE25
:1023E000D4F88001D4F88811C4F88C713A4607F00B
:1023F0000FFED4F89C01D4F8A411C4F8A8713A4691
:1024000007F006FE3A46D4F8B801D4F8C011C4F873
:10241000C47107F0FDFD4146D4F8BC0006F0E0FAB7
:10242000D4F8BC30D4F8D80055F82330C4F8C03004
:10243000414606F0D5FAD4F8D830D4F8F40055F86F
:102440002330C4F8DC30414675E74848C4F8D00171
:10245000D4F8D41108F0DEFD0322D4F8BC00D4F87F
:10246000C410C4F8C82007F0D3FDD4F8D800D4F8BD
:10247000E010FF2280E73E48FFF711BB3D480027F0
:10248000C4F8D001D4F8D41108F0C4FDD4F8BC00CD
:10249000D4F8C410C4F8C8703A4607F0B9FDD4F8AF
:1024A000D800D4F8E010C4F8E4703A4607F0B0FD64
:1024B000D4F8F400D4F8FC10C4F800713A4607F0E0
:1024C000A7FDD4F81001D4F81811C4F81C713A46CD
:1024D00007F09EFDD4F82C01D4F83411C4F83871FB
:1024E0003A4607F095FDD4F84801D4F85011C4F8E5
:1024F00054713A4607F08CFDD4F86401D4F86C119D
:10250000C4F870713A4607F083FDD4F88001D4F81E
:102510008811C4F88C713A4607F07AFDD4F89C0112
:10252000D4F8A411C4F8A8713A4607F071FDD4F8A4
:10253000B801D4F8C011C4F8C4713A4607F068FD78
:10254000D4F8BC00394606F04BFAD4F8BC30D4F8C5
:10255000D80055F82330C4F8C0303946E0E60648C4
:102560008DE700BF4CE7010018E7010024E70100F8
:1025700058E70100DCE60100E4E60100DE48C4F8AB
:10258000D001D4F8D41108F045FDD4F8BC00D4F83B
:10259000C410FF220027C4F8C82007F039FDD4F882
:1025A000D800D4F8E010C4F8E4703A4607F030FDE3
:1025B000D4F8F400D4F8FC10C4F800713A4607F0DF
:1025C00027FDD4F81001D4F81811C4F81C713A464C
:1025D00007F01EFDD4F82C01D4F83411C4F838717A
:1025E0003A4607F015FDD4F84801D4F85011C4F864
:1025F00054713A4607F00CFDD4F86401D4F86C111C
:10260000C4F870713A4607F003FDD4F88001D4F89D
:102610008811C4F88C713A4607F0FAFCD4F89C0192
:10262000D4F8A411C4F8A8713A4607F0F1FCD4F824
:10263000B801D4F8C011C4F8C4713A4607F0E8FCF8
:10264000D4F8BC0001217EE7AC48C4F8D001FF27D4
:10265000D4F8D41108F0DEFC3A46D4F8BC00D4F823
:10266000C410C4F8C87007F0D3FC3A46D4F8D800B8
:10267000D4F8E010C4F8E47007F0CAFC3A46D4F885
:10268000F400D4F8FC10C4F800714FF0000807F013
:10269000BFFC3A46D4F81001D4F81811C4F81C71E4
:1026A00007F0B6FC0127D4F82C01D4F83411C4F893
:1026B0003881424607F0ACFCD4F84801D4F85011F8
:1026C000C4F854713A4607F0A3FCD4F86401D4F876
:1026D0006C11C4F870713A4607F09AFCD4F8800186
:1026E000D4F88811C4F88C81424607F091FCD4F8E4
:1026F0009C01D4F8A411C4F8A881424607F088FCD4
:102700003A46D4F8B801D4F8C011C4F8C47107F03F
:102710007FFC3946D4F8BC0006F062F9D4F8BC302E
:10272000D4F8D80055F82330C4F8C030394606F044
:1027300057F9D4F8D830D4F8F40055F82330C4F859
:10274000DC30394606F04CF9D4F8F430D4F81001F6
:1027500055F82330C4F8F830394606F041F9D4F87A
:102760001031D4F82C0155F82330C4F81431414607
:1027700006F036F9D4F82C31D4F8480155F8233056
:10278000C4F83031394606F02BF9D4F84831D4F882
:10279000640155F82330C4F84C31394606F020F96D
:1027A000D4F86431D4F8800155F82330C4F8683186
:1027B000414606F015F9D4F88031D4F89C0155F85B
:1027C0002330C4F884314146FFF726BA4C48C4F898
:1027D000D001FF27D4F8D41108F01CFC3A46D4F8F5
:1027E000BC00D4F8C410C4F8C87007F011FC3A4615
:1027F000D4F8D800D4F8E010C4F8E470002707F04B
:1028000007FCD4F8F400D4F8FC10C4F800713A4680
:1028100007F0FEFBD4F81001D4F81811C4F81C71AD
:102820003A4607F0F5FBD4F82C01D4F83411C4F87B
:1028300038713A4607F0ECFBD4F84801D4F850114F
:10284000C4F854713A4607F0E3FBD4F86401D4F8B5
:102850006C11C4F870713A4607F0DAFBD4F88001C5
:10286000D4F88811C4F88C713A4607F0D1FBD4F83B
:102870009C01D4F8A411C4F8A8713A4607F0C8FB2B
:10288000D4F8B801D4F8C011C4F8C4713A4607F0BE
:10289000BFFBD4F8BC00012106F0A2F8D4F8BC308C
:1028A000D4F8D80055F82330C4F8C030012137E5FA
:1028B0001448C4F8D001D4F8D41108F0ABFBD4F814
:1028C000BC00D4F8C410062264E60F2B96BF0E4A53
:1028D0000E4852F82300D2E5D4F84C33C4F8500324
:1028E0000146184606F04AFF00283FF4E5A92B6888
:1028F000C4F85833FFF7E0B9ECE6010000E7010047
:1029000034E7010040E7010094F00100C8E601004F
:10291000D4F87433C4F878030146184606F02EFF45
:1029200000283FF4EDA9D8F80030C4F88033FFF751
:10293000E7B9D4F86033C4F864030146184606F0DA
:102940001DFF00283FF4CAA92B68C4F86C33FFF7B9
:10295000C5B900BF2DE9F04FA04BC26953F8225012
:10296000002787B0044643F82270002D40F0B18064
:10297000426B53F8221043F82250002964D1DFF84B
:1029800064B2A36E964A5BF82350A36AE56652F8D8
:102990002330E362934EEBB9204600210BF086FA18
:1029A000914D2E6811F0D8FC14F028F807463946EE
:1029B000304614F015FA58B12E6010F06FFE8B4BB4
:1029C0001B68C01AB0F5FA6F38D207B0BDE8F08FB7
:1029D0003E46F1E710F062FE0746284614F00EF876
:1029E000834D0146834814F011F914F047FA2B681F
:1029F000FB1A9842D0D210F051FE7F4BD4F8A020A1
:102A0000196856F82220C4F8A4200131C4F88423A0
:102A10002860204619600BF01DF8D4F8843056F871
:102A20002310C4F8881020460BF040FA01280CBF90
:102A3000724B734B1A6801321A60B1E7204607B037
:102A4000BDE8F04FFEF7B4BE6E4E6F493368DFF855
:102A500094B15B686D4F0A2230469847E36C5BF88F
:102A6000233023654FF0CC0808FB03F357F803909D
:102A7000484615F04FF93368024649465B683046D0
:102A80009847336862495B680C2230469847E36C8C
:102A90005BF82330236508FB03733046996811F017
:102AA00037FD304611F0E8FCE36C5BF8233023651A
:102AB00008FB03770121387A10F0B2FC642010F093
:102AC0000FFE387A294610F0ABFC642010F008FEA7
:102AD00057E7C36CDFF80CB14A4E5BF8233032681D
:102AE00003654FF0CC0808FB03F8484D536849498B
:102AF0001F223046984758F80590484615F00AF9C5
:102B00003368024649465B6830469847304611F0C4
:102B1000B3FC336840495B680D22304698473F4913
:102B2000304611F0F5FC304611F0A6FC33683C4904
:102B30005B6845440D2230469847A968304611F03D
:102B4000E7FC304611F098FC336836495B680D228B
:102B5000304698476B683046596811F0D9FC3046CA
:102B600011F08AFC11F022FC0220012110F058FC27
:102B70000E20012110F054FC142010F0B1FD6B6800
:102B80005B68012B00F00881022B40F09381264BFB
:102B9000D3F8883004932549DFF89CC00A68244F95
:102BA000244B42F4805940F213384FF4517E0022F6
:102BB0001A260D20C1F800900C21CCF80080C7F82F
:102BC00000E01A705E7098729A701A74D97005F0ED
:102BD000CBFEFA2010F084FD32E000BFA4C1FF1F3D
:102BE00000B2FF1F44D1FF1FF494FF1FF094FF1F9A
:102BF0000495FF1F002474490095FF1FFC94FF1FDC
:102C0000F894FF1FCC0D0020E8E7010044030020EA
:102C1000F4E7010098E70100B8E70100E4BB010018
:102C2000C8E70100D8E701004C01002034800440CF
:102C30000CC0044000C0064008C0044011F0A8FACF
:102C400011F0F2FA0028F9D19E4E6B68DFF89C92E1
:102C5000DFF884A2D6F800805B6805944FF0FF3758
:102C60003268C8EB0202BA422BD2A9680391012B49
:102C700000F0C480022BF3D111F0D6FA002840F006
:102C8000D5809AF80430990600F1C8804FF0010C05
:102C900000218D48037813F0010340F091808B4CA4
:102CA0000129C8BFD6F80080326823706B68C8BF9E
:102CB0004FF47A77C8EB0202D4BF5B685B68BA4214
:102CC000D3D3012B059C00F0C580022B3DD1049A83
:102CD0007F4980480F68C0F88820501000F1B76223
:102CE0000498DFF810C2DFF810E27B4B7B4D02F551
:102CF000584292FBF0F247F4805A40F213394FF4F5
:102D00005178C1F800A0C2F34437CCF80090C2F368
:102D1000471ACEF8008002F01F0200214FF0100980
:102D20004FF02C0C4FF040084FF4003E1F7083F81A
:102D300001A09A72997083F802901974684983F817
:102D400003C085F80080C1F800E0FA2010F0C8FC4C
:102D500001E011F01DFA11F067FA0028F9D1D4F85A
:102D6000A030C4F8A4004BF823003268D4F8B43083
:102D7000544DD31A462B7FF628AED4F8A030C4F8B1
:102D8000A4000146184606F039FD00283FF41DAEA8
:102D90002B68C4F8B43018E6524BD3F8883004934B
:102DA0004B49DFF858C10A684F4F504B42F4006955
:102DB00040F213384FF4517E002234261A20F9E6EF
:102DC000424802780446002A7FF46AAF03990193CF
:102DD000C9B2084603910121CDF800C0029210F05B
:102DE0001FFB022010F07CFC029A0398114610F0A1
:102DF00017FBDDF800C0019B614651E711F014FAA2
:102E0000F0B999F804309B067FF540AF99F80700B8
:102E100011F096FA4FF0040C03213AE79AF80700F4
:102E200011F08EFA4FF0040C032132E711F0B0F9E3
:102E3000C0B29AF804305C06FBD5274AD07120E76F
:102E400011F0A6F9C0B299F804305A06FBD5274B09
:102E5000D871D6E7049A1E4922480F68C0F8882026
:102E6000501000F137620498DFF890C0DFF878E086
:102E70001E4B1F4D02F5D83292FBF0F247F4006A68
:102E800040F213394FF45178C1F800A0C2F344372F
:102E9000CCF80090C2F3471ACEF8008002F01F026F
:102EA00000214FF010094FF02C0C4FF040084FF468
:102EB000004E3BE7012B04973FF472AF022B7FF4E7
:102EC00086AE68E6D40C0020C80D0020E894FF1FF1
:102ED000348004404C01002000C0064031E400E092
:102EE00004E100E05000002010B0044000B00640B3
:102EF0002FE400E008C004400CC004400CB00440C3
:102F00002DE9F84F4369D3F8382100210446C3F86E
:102F1000381142B9D4F85C31002B40F01781C4F865
:102F20006431BDE8F88F036CB74D55F82300606439
:102F3000404213F063FD636AE0670746D4F824213A
:102F400055F82300A062606755F82220D4F88C1051
:102F5000C4F82821A4F87821D1F8009013F04EFD90
:102F600080464146484613F093FC0021064613F084
:102F700055FF002800F02B81B246A06F13F03EFDF4
:102F80005146834613F04AFF002840F01C81414619
:102F9000484613F043FF5946002800F01B81304695
:102FA00013F076FC0146384613F07CFD13F040FF29
:102FB00013F024FD0746D4F8880013F01FFD0146E6
:102FC000304613F067FC13F033FFD4F884305A42D4
:102FD0009042C0F2FA809842A8BF1846C4F8880010
:102FE00013F00CFDD4F8801013F05CFD394613F09B
:102FF00051FC13F01DFFD4F89830606655F823009B
:10300000C4F89C00404213F0F9FC804913F0FEFD27
:10301000D4F8D430C4F8CC00196813F043FD13F091
:1030200007FF7B4AD4F8DC30C4F8BC0055F82330E5
:103030001168D4F84021C4F8E030C4F81031C4F865
:10304000141155F82250D4F89831C4F84451AB42C9
:103050003FF460AF284613F0D1FC6E4913F0D6FD63
:1030600001466D4813F0D2FD13F008FFD4F87C310F
:103070009842064663D010F011FBD4F86831D4F8BA
:103080007C51C01AB0FBF5F305FB130013F0B2FC42
:103090000746284613F0AEFC0146384613F0B6FD4D
:1030A000C4F87C614FF07E51054613F0B7FE58B16D
:1030B00028464FF07E5113F0EBFB4FF07E51054652
:1030C00013F0ACFE0028F3D128464FF07E5113F0E8
:1030D00087FE58B128464FF07E5113F0DBFB4FF0CE
:1030E0007E51054613F07CFE0028F3D110F0D6FA8D
:1030F000D4F87C61D4F868718146304613F07AFCCC
:103100008046C7EB0900B0FBF6F306FB130013F093
:1031100071FC414613F07AFD0146C4F8740128465B
:1031200013F0B6FB0146404613F0BCFC13F0A6FEBC
:10313000381AC4F8680110F0B1FAD4F84451D4F840
:103140005C31C4F89851002B3FF4E9AE10F0A6FAB8
:10315000D4F87031D4F8682133B14FF47A71821AFF
:1031600001FB03F39A4239D810F098FAD4F8683189
:10317000D4F87C51C01AB0FBF5F305FB130013F033
:1031800039FC0646284613F035FC0146304613F05C
:103190003DFD2249C4F8740113F084FC13F06EFE67
:1031A000D4F88421B4F8783132F810101C4A13FB9B
:1031B00001F382FB03121A44DB17C3EB6223C4F84A
:1031C0006431BDE8F88F0027F5E6104606E706F102
:1031D000004AD2E6304613F05DFBE3E6114D12499A
:1031E0002B680D225B6828469847284611F044F961
:1031F000D4F8583104F5AC70DB6898470023C4F864
:103200005C31BDE8F88F00BF44D1FF1F0000C84209
:10321000D40C002000007A440024744900A03B45EF
:1032200003082080CC0D0020B8E6010038B5044624
:1032300008460D4614F06EFD2368024629465B6879
:10324000204698470546204611F016F9284438BD17
:103250002DE9F04F9E4D2B68DB0783B0044657D510
:10326000D4F8E837002B3BD09A4A9B4B12681B6876
:10327000D31AF92B34D800270FE0D4F8E4576B1C8D
:10328000C4F8E43710F084FF25442873D4F8E437F9
:10329000E218B3F57A7F177326D010F0C5FF002629
:1032A00005460028E9D1237B0A2B15D0637B0A2B26
:1032B00012D0D4F8E4377BB12344DB7A0A2B34D024
:1032C0000D2B32D0D4F8E8371BB9824A824B1268F2
:1032D0001A600123C4F8E837284603B0BDE8F08F30
:1032E0000023C4F8E437C6E77C4D7D492B680D22E6
:1032F0005B6828469847284611F0BEF835462846B0
:10330000C4F8E467267384F8F56303B0BDE8F08F72
:10331000284610F06BF80028A2D06E4A6E4B126857
:103320001A60284610F068F89AE7A2680023C4F8EB
:10333000E837C4F8E03704F10C07002A40F0888031
:10334000104604F2F536324601AB6649384414F0B3
:1033500047FBD4F8E017019A23680A440132C4F805
:10336000E02731465B6820463A4698475E498046EA
:10337000304614F063FB002800F0828030465B4941
:1033800014F05CFB002857D03046594914F056FB26
:10339000002800F081803046564914F04FFB002889
:1033A00000F086803046544914F048FB002800F0B5
:1033B0008B803046514914F041FB002800F0BC805E
:1033C00030464F4914F03AFB8146002800F0C08097
:1033D00030464C4914F032FB8146002800F0E08072
:1033E0003046494914F02AFB8146002800F00A8142
:1033F0003046464914F022FB002800F0FA8030469F
:10340000434914F01BFB60B942493448FFF70EFFF3
:1034100010F0CCFF0A2010F063F93F4B3F4A1A60CE
:10342000012518EB05057FF457AF236831463A466E
:103430009B68204698474FE7284D39492B68284616
:103440005B6815229847284611F016F80125E8E731
:10345000224E3449336830465B6802229847A3689D
:103460005BB1384614F056FC336802465B68304660
:1034700039469847304610F0FFFFD4F8E00760E780
:10348000164D29492B6828465B680F229847284625
:1034900010F0F2FF0125C4E7104D24492B6828469F
:1034A0005B680C229847284610F0E6FF0125B8E734
:1034B0000A4D1F492B6828465B680A229847284610
:1034C00010F0DAFF0125ACE7044D1A49F2E700BF1E
:1034D0000C95FF1FD40C00200895FF1FCC0D002079
:1034E00004E8010018E8010020E8010034E80100C8
:1034F00054E8010068E801007CE8010090E8010060
:10350000B0E80100C8E80100D8E801000CE90100BA
:103510001CE9010014E901000CED00E00400FA05CB
:103520003CE8010014E8010024E8010058E801002B
:1035300070E8010084E801006B4D6C492B68284657
:103540005B6818229847284610F096FF012568E727
:10355000D4F8E007664902AD6A4601AB384445F845
:10356000089D14F03DFAD4F8E007019B6049DDF8AE
:1035700000A0CDF8009018446A4601ABC4F8E007FB
:10358000384414F02DFA9DE80A00D4F8E0271344DB
:103590005FFA8AF0C4F8E0370FF088FF012540E7B2
:1035A000D4F8E007524902AD6A4601AB384445F809
:1035B000089D14F015FAD4F8E007019B4C49DDF89A
:1035C00000A0CDF8009018446A4601ABC4F8E007AB
:1035D000384414F005FAD4F8E027019B9DF8001058
:1035E00013445FFA8AF0C4F8E0370FF019FF0125A1
:1035F00017E740493C48FFF719FE10F0D7FE00BE20
:1036000001250EE7DFF818A13B4BDAF80010364D24
:10361000DFF810B1A3FB0101090E28460A224B4630
:1036200010F03AFF2B6835495B6828460522984719
:103630002B6833495B68284601229847DAF8001066
:10364000304B314AA3FB01035B0DA2FB03121209AD
:1036500002EB4201A3EBC10128460A224B4610F0BF
:103660001BFF2B6829495B682846062298472B6870
:1036700023495B68284601229847DAF80020244B4A
:10368000A3FB02039B0BABFB03125209C2EB02111B
:10369000A3EB810128460A224B4610F0FDFE2B6861
:1036A0001C495B682846082298472B6814495B68C8
:1036B000284601229847DAF80020174BA3FB0202A4
:1036C0009209ABFB02135B09C3EB0311A2EB81016F
:1036D0004B4628460A2210F0DFFE28460F49FFF726
:1036E000A5FD01259DE600BFCC0D002094E801005A
:1036F000C0E8010014E901003BD4B531E0E8010065
:10370000E8E80100B17C2195ABAAAAAAECE8010087
:1037100073B2E745F4E80100D34D621000E90100FF
:10372000D40C0020898888882DE9F0410C4682B0AD
:1037300005467A492046164614F080F9002843D001
:103740002046774914F07AF9002867D02046754959
:1037500014F074F9002845D02046734914F06EF92E
:10376000002869D02046714914F068F9002847D034
:1037700020466F4914F062F9002874D020466D4944
:1037800014F05CF90746002879D020466A4914F005
:1037900055F90746002800F099802046674914F043
:1037A0004DF90546002800F0E5802046644914F0F4
:1037B00045F9002800F04E812046624914F03EF998
:1037C00000283CD000200AE05F4C604923680F22AB
:1037D0005B6820469847204610F04EFE012002B05C
:1037E000BDE8F081584C5A4923680C225B6820469A
:1037F0009847204610F040FE012002B0BDE8F0815D
:10380000514C544923680A225B6820469847204659
:1038100010F032FE012002B0BDE8F0814A4C4E4962
:10382000236815225B6820469847204610F024FE46
:10383000012002B0BDE8F081434C4849E2E7424C28
:103840004749236804225B6820469847204610F0C9
:1038500013FE10F0ABFD0A200FF042FF414B424A2D
:103860001A600120BBE7384C4049236818225B6886
:1038700020469847204610F0FFFD0120AFE7D5F81D
:10388000E0073B4902AC6A4601AB304444F8087D8E
:1038900014F0A6F8D5F8E007019B3549DDF8008063
:1038A000009718446A4601ABC5F8E007304414F0AD
:1038B00097F89DE80A00D5F8E02713445FFA88F0EE
:1038C000C5F8E0370FF0F2FD012088E7D5F8E007F2
:1038D000274902AC6A4601AB304444F8087D14F035
:1038E0007FF8D5F8E007019B2149DDF800800097BB
:1038F00018446A4601ABC5F8E007304414F070F88C
:10390000D5F8E027019B9DF8001013445FFA88F07A
:10391000C5F8E0370FF084FD012060E720E80100E2
:1039200034E8010054E8010068E801007CE8010087
:1039300090E80100B0E80100C8E80100D8E8010003
:103940000CE901001CE90100CC0D002024E8010075
:1039500058E8010084E801003CE8010070E801003B
:1039600014E901000CED00E00400FA0594E8010000
:10397000C0E801003F4E404B3168404C404FA3FB34
:103980000101090E0A222B46204610F085FD23680E
:103990003C495B6805222046984723683A495B68A2
:1039A0000122204698473168384B394AA3FB01036E
:1039B0005B0DA2FB0312120902EB4201A3EBC10152
:1039C0000A222B46204610F067FD236831495B68C8
:1039D00006222046984723682B495B68012220462F
:1039E000984732682C4BA3FB02039B0BA7FB0312E7
:1039F0005209C2EB0211A3EB81010A222B46204699
:103A000010F04AFD236825495B6808222046984744
:103A100023681D495B680122204698473268204B85
:103A2000A3FB02029209A7FB02177F09C7EB07114C
:103A3000A2EB81012B460A22204610F02DFD2368BF
:103A400018495B68082220469847204610F014FD6C
:103A50000120C4E6094C1449236804225B6820460F
:103A60009847204610F008FD10F0A0FC00BE012091
:103A7000B5E600BFD40C00203BD4B531CC0D0020FE
:103A800089888888E0E80100E8E80100B17C219598
:103A9000ABAAAAAAECE8010073B2E745F4E801007A
:103AA000D34D621000E9010014E90100044A0260EC
:103AB000012242604FF6FF7202810022C26070470D
:103AC00078E4010010B4012141604FF6FF720281D9
:103AD0000022C260054C04600024C461028441627B
:103AE0008262C2625DF8044B704700BFF0E40100DF
:103AF00010B5044610F0E6FD204610BDF0B50446B2
:103B00008BB0D0F88801D4F88C115F4D5F4E06F071
:103B100027FD04F1A00292E80C40D4F89C70D4F880
:103B20009400D4F898108DE8804006F035F9E16AE9
:103B3000236B626A306801EBD17103EBD3734910D8
:103B400001EB6301A16245F82210A36BC31A462B57
:103B500000F2848004F12C0292E80C40A76A206AEB
:103B6000616A8DE8804006F017F904F1480292E896
:103B70000C40676CE06B216C8DE8804006F00CF91E
:103B800004F1E40292E80C40D4F8E070D4F8D800D4
:103B9000D4F8DC108DE8804006F0FEF804F596724B
:103BA00092E80C40D4F82871D4F82001D4F82411FC
:103BB0008DE8804006F0F0F8D4F824213068334EC8
:103BC0000021C4F8281145F82210D4F83831C31A5E
:103BD000462B4DD8D4F84461D4F85071D4F8401134
:103BE000D4F84821D4F83C01D4F84C318DE8C00019
:103BF00006F0D2F8D4F8403155F82330C4F84431F7
:103C00000FF04CFD01226369C4F85C210021C4F867
:103C10006801C4F87011596802A810F09FFD02A94C
:103C200006A810F0B9FD06A8194910F01FFE00689B
:103C3000E169A06107F0EEF906A8FFF759FF02A8B5
:103C400010F040FDA069E16906F08AFCD4F890010B
:103C5000D4F8941106F084FC0BB0F0BD606AA16248
:103C600005F0CCFD00283FF475AF3368A36371E71E
:103C7000D4F82401C4F8281105F0C0FD0028A9D00B
:103C80003368C4F83831A5E744D1FF1FD40C0020B5
:103C900024E9010000220264704700BF2DE9F04FC3
:103CA000664F076085B0664F029204468B460393C9
:103CB0000FCF644DDFF8A481C4F84880D5F80080A8
:103CC0000197DFF89CC1604F2761C4F85CC05F4F6B
:103CD000676608F1010C00270026C4F80880C5F8C3
:103CE00000C04FF00108DFF87C91DFF87CE1584D0F
:103CF000C4F81490C4F860E0C4F804B0C4F80CB080
:103D0000C4F81880E661E66226636663E66467626B
:103D1000A762A766E76627676767A767E767A5657E
:103D2000019DDFF848A1C4F8807004F1940EC4F836
:103D30008470C4F88870C4F88C70C4F89070C4F8AB
:103D400020A0AEE80F000FCDAEE80F0095E8070009
:103D50008EE807003F4ADFF818E101954FF0CD0CDF
:103D60004FF07E5342F2283142F210793A4DC4F8B6
:103D7000C870C4F8CC70C4F8D880C4F8DC60C4F84B
:103D8000E460C4F8F070C4F8F470C4F8EC20C4F82F
:103D900014212F4AC4F8C4C0C4F8D0E0C4F8F8E035
:103DA0002560C4F8D430C4F8FC30C4F8E810C4F876
:103DB0001011C4F82821C4F82C31C4F8E0A0C4F8CC
:103DC000C09004F5A070C4F80081C4F808A1C4F83C
:103DD0000461C4F80C61C4F81871C4F81C71C4F80B
:103DE0003061C4F83871C4F83C71FFF753FF1025F7
:103DF000029B039AC4F82031C4F8242139462A468C
:103E0000C4F8D471C4F8D871C4F8DC71C4F834B102
:103E1000C4F84081C4F84481C4F84881C4F84C8196
:103E200004F5A87013F08EFB39462A4604F5B070ED
:103E300013F088FB204605B0BDE8F08FB8E501001F
:103E400040E60100D0E8FF1F80E50100F0490200D4
:103E500060E40100D8DCFFFFB8F30100A69B443BFF
:103E60000AD7A33D9A99993E0000C84100F07F45CA
:103E700068E501002DE9F84F04460D46DFF8C0B1B2
:103E8000644F654EDFF8BC91DFF8BCA1DFF8BC8160
:103E900004F000FC614B236005F10803DBF800002F
:103EA0006561A3616B68E36104F1300C0023821C3F
:103EB0004FF4FF71C4F83CC067626663A16320627F
:103EC000A2622364E362564F6D6E5649676404F143
:103ED000500C04F17007C4F85CC0E76700F1040CF3
:103EE000871D616604F19001C4F848C0C4F874905D
:103EF000A766C4F89C1000F1080704F1AC014FF468
:103F00007A7C4FF01909A565C4F878C0C4F884A07C
:103F1000454A464D2366E3646365C4F88030E36632
:103F2000C4F8A030C4F88C304FF02D0CC4F8949035
:103F3000C4F88870C4F8B01004F1D40700F10E0181
:103F400000F10A0A04F1C009C4F898C0C4F8A4201A
:103F500000F10C0C04F1E802C4F8AC50C4F8D870BD
:103F600000F1100500F11307C4F8D010304E3149AC
:103F7000C4F8A8A0C4F8C490C4F8B880C4F8BCC001
:103F8000C4F8CC6000F1120CC4F8187100F11506E9
:103F9000C4F8EC20C4F8E01000222749C4F8E4502B
:103FA00004F5807A44F6206946F6605814304FF0E4
:103FB000FF35224FC4F82001C4F8B430C4F8C8302B
:103FC000C4F8DC30C4F8F030C4F81031C4F8FC3068
:103FD000C4F80CA1C4F8F470C4F80491C4F80881C2
:103FE000C4F8F8C0CBF80060C4F8C020C4F8D420EE
:103FF000C4F8E820C4F81411C4F81C11C4F8243122
:10400000C4F82831C4F82C31C4F830512046BDE83A
:10401000F88F00BF34E9010002FEFFFFE8E5010070
:104020004CE9010064E9010094E90100000080BF4F
:10403000B4E90100CCE9010080ED0100E4E90100F0
:1040400054A2FF1F18FCFFFF7CE901009CE901005E
:10405000012242604FF6FF7202810022C2600449D1
:1040600001600262642242624FF47A728262704797
:1040700040E50100FFFFFFFF2DE9F04F064683B04A
:10408000DFF84482DFF844920F4604F003FB7E4BD6
:104090003360D8F800A07D4BB3617761C6F81CA0EF
:1040A000786E12F0ABFC00244FF0FF35784A326294
:1040B0000AF1010171627563B463B46275490190DC
:1040C00012F0F0FC12F0B4FEF062019B7249184647
:1040D00012F0E8FC12F0ACFE0AF102036F4A306302
:1040E0001E21356574657464B4643364F2630AF147
:1040F0000303F16406F15800C8F80030FFF7D6FC5E
:10410000D8F80030664A6748756707F198014FF0A4
:10411000000B4FF0960AB467C6F88440C6F8884092
:10412000C6F8A850C6F8AC40C6F89C40C6F8A040F7
:10413000B065C6F88C10C6F89420C6F89830C6F85A
:104140007CB00133C6F880B0C6F8A4A006F1B00078
:10415000C8F80030FFF7AAFCD8F80030DFF870E1AB
:104160005148C6F8EC506FF0310132229C37C6F846
:10417000D470C6F8F040C6F8E040C6F8B0E0C6F823
:10418000D800C6F8E410C6F8E820C6F8DC30C6F857
:10419000CCB0013306F1F400C8F80030FFF758FF47
:1041A000D8F80030DFF82CC1404A414FC6F83451EE
:1041B00003F1010E4FF47A700121C6F83841C6F8B8
:1041C0002841C6F82C41C6F85051C6F85441C6F8EB
:1041D0002431C6F844010233C6F830A1C6F820C124
:1041E000C6F840E1C6F83C71C6F84811C6F84C2143
:1041F00006F5AC70C8F80030FFF764FCD9F8004051
:104200002C4B2D4DC6F85831C6F884510CBB023DDD
:104210000020002140F6BB370BE012F0EFFB2749EE
:1042200012F040FC264912F0F1FC11F0A7FF10F04B
:10423000F5FC13A3D3E9002311F0F4FF12F08CFA7C
:104240000134BC4225F8020F2046E6D10123C9F80B
:104250000030D8F800301B4AC6F88C31981C002179
:104260000133C8F800003046C6F89431C6F88821FA
:10427000C6F89021C6F8981103B0BDE8F08F00BFD2
:104280000000000000F88F4008E60100FCE9010092
:1042900020EA010017B7D138FAED6B3A40EA010085
:1042A00060EA0100A0E4010080EA01007011010051
:1042B000C0EA010018E50100D4E8FF1F560EC9400E
:1042C00000A03B4580ED010054A2FF1F4C000020E0
:1042D000C8E40100A0EA01002DE9F0470025444EA2
:1042E000056032684349444B436002F1010E0446C5
:1042F000971C4FF0FF33DFF81891DFF818818260C8
:10430000C36002F1030C41F822302820C4F814E005
:10431000A361C4F8109041F82E306362C4F81C8089
:10432000276241F82730A562C6F800C010F09CF85B
:104330000746DFF8E48004F0ADF94FF47A71042207
:104340002E4BB9613A627B617D62FD61C7F80080E6
:104350002820A76210F088F8064604F09BF94FF475
:10436000FF72274BB2617361C6F800807562F56118
:10437000356228207E6210F077F8074640F6B8399B
:1043800004F088F94FF4FA6A01221E4B3A627B610D
:10439000C7F800807D62C7F81890C7F81CA02820D5
:1043A000776210F061F8064604F074F90222164BA9
:1043B00032627361C6F800807562C6F81890C6F85C
:1043C0001CA028207E6210F04FF8074604F062F926
:1043D00003220E4BC7F800807D62C7F81890C7F81B
:1043E0001CA03A627B6177622046BDE8F08700BF7F
:1043F00054A2FF1F00B2FF1FE0EA010010EB010012
:1044000020EB010034EB010050EB01006CEB0100EC
:10441000F0EA010004EB010028E6010070B5234D2D
:1044200023492B688AB006465B683B22284698479A
:10443000284610F021F864200FF052F93046002190
:104440000AF0E4FB3046002100240AF017FC0122A8
:10445000D6F8200100941346019402940394049426
:1044600005940694079408940D210CF085FB012215
:10447000D6F82401009413460D210194029403946C
:10448000049405940694079408940CF075FB64203A
:104490000FF026F92B6807495B68284607229847E2
:1044A00028460AB0BDE870400FF0E6BFCC0D0020F2
:1044B00088EB0100C4EB01002DE9F04389B00F4601
:1044C00090469946012106AA07AB064609F064FD0D
:1044D000069C013400F09A80079C01344FF00005DF
:1044E00000F0A480069CA01C5ED0079DA91C5BD098
:1044F000E21C41D0EB1C3FD0601D00F0AE80691D76
:1045000000F0AB80A21D76D0AB1D74D0013423D057
:10451000D6F8203193F84D20BA4200F0C1806C4C9F
:104520006C4923681E225B682046984720460FF09E
:10453000A3FF87245D206721962201230290039127
:1045400004920593CDF800800194304649463A46DE
:10455000109B0AF0CBFB079D01351AD0D6F8243109
:1045600093F84D20424500F08380594C5A49236806
:1045700020465B681E221DE0554C584923682722BF
:104580005B682046984720460FF076FF3046FFF7DD
:1045900045FF069B002B2ADD07980028D4BF00208A
:1045A000012009B0BDE8F083494C4D4923685B68A0
:1045B00020462622984720460FF05EFF67254FF0E1
:1045C000870C4FF05D0E012396240593CDF80080F3
:1045D000109BCDF804C0304649463A46CDF808E075
:1045E000039504940AF082FB069B002BD4DC002088
:1045F00009B0BDE8F083364C3A49236820465B6831
:104600002722984720460FF037FFC2E7304C364943
:10461000236820465B681F22984720460FF02CFF36
:10462000079C01344FF001057FF45CAF284C2F4903
:10463000236820465B681F22984720460FF01CFF26
:10464000002D3FF44FAF236829495B6820464A227A
:10465000984720460FF010FF9BE71D4C2549236823
:1046600020465B682122984720460FF005FF90E71F
:1046700093F84C2010998A427FF477AF93F84F203B
:104680005D2A7FF472AFB3F8501049F2676291422D
:104690007FF46BAF93F84E30872B7FF466AF78E7EB
:1046A00093F84C204A457FF43AAF93F84F205D2AA7
:1046B0007FF435AFB3F8501049F2676291427FF44E
:1046C0002EAF93F84E30872B7FF429AF44E700BF1D
:1046D000CC0D0020F4EC010014ED010080EC010091
:1046E00058EC0100CCEC0100CCEB0100ECEB01003C
:1046F0000CEC0100A8EC0100B84B2DE9F0414FF49F
:10470000FA6210201A600EF009FE044611200EF025
:1047100005FE0304122003EB04640EF0FFFD04EB1E
:10472000002413200EF0FAFD2044F02800F015813B
:10473000AB4CAC49236825225B682046984720464D
:104740000FF09AFE2368A8495B6824222046984708
:1047500020460FF091FE2368A4495B68242220467E
:10476000984720460FF088FE2368A1495B681A220B
:104770002046984720460FF07FFE23689D495B68DE
:1047800019222046984720460FF076FE23689A4962
:104790005B681A222046984720460FF06DFE23687A
:1047A00090495B6820462522984720460FF064FE1A
:1047B000012702260325002420460EF0AFFD00212C
:1047C00010B120460EF0BEFD38460EF0A7FD0434B1
:1047D000002110B138460EF0B5FD30460EF09EFDBA
:1047E0000437002110B130460EF0ACFD28460EF023
:1047F00095FD0436002110B128460EF0A3FDB4F556
:10480000005F05F10405D7D110200EF087FD18B127
:10481000102000210EF096FD11200EF07FFD18B142
:10482000112000210EF08EFD12200EF077FD18B140
:10483000122000210EF086FD13200EF06FFDF028EF
:1048400003D01320F0210EF07DFD00200EF066FD58
:1048500018B1002001460EF075FD01200EF05EFD3E
:1048600018B1012000210EF06DFD02200EF056FD62
:10487000012803D0022001210EF064FD03200EF078
:104880004DFD2C2803D003202C210EF05BFD0420CD
:104890000EF044FD18B1042000210EF053FD052058
:1048A0000EF03CFD18B1052000210EF04BFD062056
:1048B0000EF034FD092803D0062009210EF042FD38
:1048C00007200EF02BFD9A2803D007209A210EF026
:1048D00039FD08200EF022FD18B1082000210EF04D
:1048E00031FD09200EF01AFD18B1092000210EF04B
:1048F00029FD0A200EF012FD092803D00A20092103
:104900000EF020FD0B200EF009FD9A2803D00B209D
:104910009A210EF017FD0C200EF000FD18B10C20AE
:1049200000210EF00FFD0D200EF0F8FC18B10D2047
:1049300000210EF007FD0E200EF0F0FC092803D038
:104940000E2009210EF0FEFC0F200EF0E7FC9A2845
:1049500003D00F209A210EF0F5FC284F284C294D4A
:10496000962600207E660EF0D9FC804601200EF0CF
:10497000D5FC0304022003EB08680EF0CFFC08EB23
:10498000002803200EF0CAFC08EB0003B3F5FF7FFC
:10499000A8BF4FF4FF730020AB42ACBFBB66BD663F
:1049A00066660EF0BBFC064601200EF0B7FC030461
:1049B000022003EB06660EF0B1FC06EB0026032096
:1049C0000EF0ACFC3044B0F5FF7FA8BF4FF4FF7091
:1049D000A842ACBFA066A566BDE8F0816C87FF1F4A
:1049E000CC0D002034ED01005CED010084ED0100F0
:1049F000ACED0100C8ED0100E4ED01001C9CFF1FBF
:104A0000309FFF1F02FEFFFF2DE9F047B34CDFF898
:104A1000E892B34FB34EB44DDFF8E0820FF0C6FC1E
:104A2000D4F84C0304F022FFD4F8600304F01EFF16
:104A3000D4F8740304F01AFFD4F8DC0107F02EF860
:104A4000E06907F08BFDE06C07F028F8206C07F0B8
:104A500085FDD4F8840007F021F8A06E07F01EF859
:104A6000A06A07F07BFD606B07F078FDD4F8A0002A
:104A700007F014F8D4F8D40107F010F8D4F82403A0
:104A800004F0F4FED4F8380304F0F0FED4F8BC00CF
:104A900007F004F8D4F8D80007F000F8D4F8F400D0
:104AA00006F0FCFFD4F8100106F0F8FFD4F82C0152
:104AB00006F0F4FFD4F8480106F0F0FFD4F86401E2
:104AC00006F0ECFFD4F8800106F0E8FFD4F89C0172
:104AD00006F0E4FFD4F8B80106F0E0FFD4F8E401F2
:104AE00004F0C4FED4F8040204F0C0FED4F824029A
:104AF00004F0BCFED4F8440204F0B8FED4F864021A
:104B000004F0B4FED4F8840204F0B0FED4F8A40299
:104B100004F0ACFED4F8C40204F0A8FED4F8E40219
:104B200004F0A4FED4F8040304F0A0FED9F8680051
:104B300004F09CFED9F8A80004F098FED9F8BC0057
:104B400004F094FED9F8D00004F090FED9F8E40007
:104B500004F08CFED9F8F80004F088FED9F888003B
:104B600004F084FED9F8280004F080FED9F848004B
:104B700004F07CFED9F8200004F078FED9F8180182
:104B800004F074FED9F8200104F070FEB86E04F051
:104B90006DFED7F8A80004F069FED7F8BC0004F059
:104BA00065FED7F8D00004F061FED7F8E40004F009
:104BB0005DFED7F8F80004F059FED7F8880004F03D
:104BC00055FEB86A04F052FEB86C04F04FFE386A25
:104BD00004F04CFED7F8180104F048FED7F8200185
:104BE00004F044FED6F88C0106F058FFD6F8980081
:104BF00006F054FFD6F8940106F050FFF06906F075
:104C00004DFF706A06F04AFF306C06F047FF4FF028
:104C1000000AD6F8DC00C6F87CA006F03FFFD6F804
:104C2000240106F03BFFD6F84001002406F036FFD1
:104C3000D5F88C01C6F86841C6F85C4106F02EFF35
:104C4000D5F8980006F02AFFD5F8940106F026FF63
:104C5000E86906F023FF686A06F020FF286C06F07A
:104C60001DFFD5F8DC00C5F87CA006F017FFD5F8CD
:104C7000240106F013FFD5F8400106F00FFFD8F825
:104C80000800C5F86841C5F85C4107F067FCD8F832
:104C9000140007F063FCD8F8200007F05FFCD8F898
:104CA000284034B1236820461B699847646A002C69
:104CB000F8D10023C8F800300FF078FB0B4B586890
:104CC00007F04CFC0A4B586807F048FC094B586841
:104CD00007F044FCBDE8F0470FF068BB9498FF1F55
:104CE0001CA1FF1FE896FF1F1095FF1F8498FF1F50
:104CF00010A1FF1FB096FF1FFC9DFF1FBC96FF1F5A
:104D00002DE9F04393B0FFF77FFE64200146024691
:104D10001923BA4DBA4C08F0ABF9DC200246014623
:104D2000FF2308F0EDF90FF041FBD5F81C01D5F891
:104D3000201105F0BFFEAB6993E8030007F0AAFE5F
:104D4000D5F8D400D5F8CC70D5F8D06012F070F852
:104D500031460246384604F019FAD5F8C000D5F8B5
:104D6000B870D5F8BC6012F063F831460246384698
:104D700004F00CFAD5F8E800D5F8E070D5F8E46056
:104D800012F056F831460246384604F0FFF94FF06B
:104D9000FF37D5F88C60D5F88400D5F88810D5F8A1
:104DA0009420D5F898300096019704F0B9F8D5F81A
:104DB000FC60D5F8F400D5F8F810D5F80421D5F842
:104DC00008318DE8C00004F0ABF86B690026D3F819
:104DD00020010096324633460196029603960496C9
:104DE000059606960796089605210BF0C5FE6B6999
:104DF0003246D3F824010096334601960296039674
:104E00000496059606960796089605210BF0B4FEC3
:104E1000EE6A686AA96A6A6BAB6B8DE8C00004F041
:104E20007FF8EE6C686CA96C6A6DAB6D8DE8C000A4
:104E300004F076F8EE6EAB6FA96E6A6F686E8DE85F
:104E4000C00004F06DF8D5F8AC00D5F8A470D5F822
:104E5000A86011F0EDFF31460246384604F096F99D
:104E60006B69296A5868E86106F076FBE869296A87
:104E700005F020FED5F81401D5F8181105F01AFE3A
:104E80006B69D3F82021D3F8243192F8560093F8B7
:104E90005630184411F0B2FDD5F8B03018602268D1
:104EA000D5F8B430D31A462B00F25682554DDFF8B0
:104EB0005081D5F81C01D5F8201105F0FBFDAB6938
:104EC00093E8030007F0E6FDD5F8D400D5F8CC70E0
:104ED000D5F8D06011F0ACFF31460246384604F0F8
:104EE00055F9D5F8C000D5F8B870D5F8BC6011F008
:104EF0009FFF31460246384604F048F9D5F8E800ED
:104F0000D5F8E070D5F8E46011F092FF3146024622
:104F1000384604F03BF9D5F88C60D5F88400D5F814
:104F20008810D5F89420D5F8983000964FF0FF36C9
:104F3000019603F0F5FFD5F8FC70D5F8F400D5F82C
:104F4000F810D5F80421D5F808310196009703F040
:104F5000E7FF6B690027D3F8200100973A463B46EC
:104F60000197029703970497059706970797089765
:104F700005210BF001FE6B693A46D3F82401009736
:104F80003B46019702970397049705970697079763
:104F9000089705210BF0F0FDEF6A686AA96A6A6B51
:104FA000AB6B0196009703F0BBFFEF6C686CA96CCC
:104FB0006A6DAB6D0196009703F0B2FFEF6EAB6FB9
:104FC000A96E6A6F686E0196009703F0A9FFD5F885
:104FD000AC00D5F8A470D5F8A86011F029FF3146CF
:104FE0000246384604F0D2F86B69296A5868E861CD
:104FF00006F0B2FAE869296A06E000BF1CA1FF1FAB
:10500000D40C0020FC9DFF1F05F054FDD5F81401C1
:10501000D5F8181105F04EFD6B69D3F82021D3F8AF
:10502000243192F8560093F85630184411F0E6FCFB
:10503000D5F8B03018602268D5F8B430D31A462BB2
:1050400000F2D781DFF84883CF4DD8F88801D8F82F
:105050008C11CE4F05F084FAD8F89C60D8F89400F3
:10506000D8F89810D8F8A020D8F8A4300096D8F82E
:10507000A860019604F090FED8F82C20D8F83030C3
:10508000D8F838602068D8F824E002EBD2714910D3
:1050900003EBD37C861B01EB6C01462EC8F828106D
:1050A00045F82E1000F29881D8F83460D8F8200026
:1050B00000910196714604F06FFED8F84460D8F86C
:1050C0005070D8F83C00D8F84010D8F84820D8F8EC
:1050D0004C308DE8C00004F05FFED8F8E060D8F8EE
:1050E000EC70D8F8D800D8F8DC10D8F8E420D8F85C
:1050F000E8308DE8C00004F04FFED8F82861D8F8F9
:105100003471D8F82001D8F82411D8F82C21D8F817
:1051100030318DE8C00004F03FFE2268D8F8383105
:10512000D8F824019A4E994FD31A0021462B45F8FE
:105130002010C8F8281100F24681D8F84461D8F848
:105140005071D8F84011D8F84821D8F83C01D8F867
:105150004C31DFF838928DE8C00004F01DFED8F81D
:1051600040318C4E55F82330C8F844310EF096FA91
:105170000122D8F81430C8F85C210021C8F8680171
:10518000C8F8701159680EA80FF0E8FA0EA90AA81D
:105190000FF002FB80490AA80FF068FB0068D8F8FE
:1051A0001C10C8F8180005F035FF0AA8FEF7A0FC8F
:1051B0000EA80FF087FAD8F81800D8F81C1005F0E0
:1051C000CFF9D8F89001D8F8941105F0C9F9D6F8BC
:1051D0008801D6F88C1105F0C3F9D6F8A470D6F87A
:1051E0009C30D6F89400D6F89810D6F8A0200093FA
:1051F0003B46D6F8A870019704F0CEFDF26A336BF7
:105200002068B76BD6F824E002EBD271491003EBAB
:10521000D37CC01B01EB6C014628B16245F82E100F
:1052200000F2C480776B306A00910197714604F0F8
:10523000B3FD776CF06B316CB26CF36C0097376D2B
:10524000019704F0A9FDD6F8E070D6F8D800D6F89A
:10525000DC10D6F8E420D6F8E8300097D6F8EC70E9
:10526000019704F099FDD6F82871D6F82001D6F8F8
:105270002411D6F82C21D6F830310097D6F83471A5
:10528000019704F089FD2268D6F83831D6F8240158
:10529000404C3E4FD31A0021462B45F82010C6F84B
:1052A000281168D8D6F85041D6F84471D6F8401184
:1052B000D6F84821D6F83C01D6F84C310194009735
:1052C00004F06AFDD6F8403155F82330C6F8443171
:1052D0000EF0E4F901247369C6F868010022C6F8EB
:1052E0007021C6F85C4159680EA80FF037FA0EA974
:1052F0000AA80FF051FA0AA827490FF0B7FA006878
:10530000F169B06105F086FE0AA8FEF7F1FB0EA870
:105310000FF0D8F9B069F16905F022F9D6F89001DB
:10532000D6F8941105F01CF90FF040F81B4B93E8E8
:10533000070006F04FFE1A4B93E8070006F04AFEFE
:10534000184B93E8070006F045FE0FF02FF8164BB8
:105350001C7013B0BDE8F083D5F8A830C5F8AC00D8
:105360000146184604F00AFA00283FF49FAD23686E
:10537000C5F8B4309AE504F041FA002892D03B68B1
:10538000C4F838318EE700BF44D1FF1FD40C002091
:10539000E896FF1F1095FF1F24E90100B096FF1F3C
:1053A00010A1FF1F8498FF1FAC96FF1F704604F0EA
:1053B00025FA70B3D9F80000D6F824E0B06306F1FE
:1053C00028010EC92EE704F019FA00283FF4B5AE03
:1053D0003B68C6F83831B0E6704604F00FFAF0B119
:1053E0003868D8F824E0C8F8380008F128010EC958
:1053F0005AE6D5F8A830C5F8AC000146184604F0C6
:10540000BDF900283FF41EAED8F80030C5F8B4301E
:1054100018E606F12801D6F824E00EC902E708F1E3
:105420002801D8F824E00EC93EE600BF70B5164E3C
:105430003378032B1FD0154DFFF7E6FA281D07C858
:1054400006F0C8FD05F1100007C806F0C3FD05F120
:105450001C0007C806F0BEFDAB6A5C6A34B1236865
:1054600020469B689847646A002CF8D100220323E9
:105470002A60337070BDFFF743FC01233370BDE831
:105480007040FFF739B900BFAC96FF1FBC96FF1FF5
:105490002DE9F04F994C2368DB078DB040F1E18393
:1054A000DFF88492964CD4F8E837002B00F09D800A
:1054B000944BD9F800201B68D31AF92B00F2958081
:1054C0004FF0000811E0D4F8E4576B1CC4F8E4373F
:1054D0000EF05EFED4F8E4372544E218B3F57A7F87
:1054E000287382F80C8000F0A2830EF09DFE844E9B
:1054F00000270028E7D1227B0A2A17D0727B0A2ACC
:1055000014D0D6F8E4278AB13244D27A0A2A00F0BD
:105510004B870D2A00F04887D6F8E8371BB9794B3E
:10552000D9F800201A600123C4F8E837764B1B68CD
:10553000764AD9F800101268CB1A934240F287835A
:10554000734F744C0597734F069400243C60DFF84A
:10555000CCB1DBF85C504FF07E50294611F098F941
:10556000DBF8601011F09EFADBF8A410064628461E
:1055700011F098FA0146304611F08CF9059FCBF8EE
:1055800060003C60644B002C33D11C7063480021E8
:1055900008F02CFF6248002108F028FF614BD9F881
:1055A00000101A6860488A1A102A1BD9069C059FA9
:1055B00022683A60B2B15D4A5D4D5268016855F8A3
:1055C00022001960002645F82260002840F02C8552
:1055D000584B5B6855F82320002145F823100AB189
:1055E000FFF724FF0DB0BDE8F08F0023C4F8E437C7
:1055F00066E71B78032BD1D801A050F823F000BF39
:105600008D5500000D580000455700001156000050
:105610004949474D8B6855F82320002145F8231050
:10562000002A45D0444CA36A5C6A002C40D0434F0A
:1056300007970895CDF82490236A079F57F82360B1
:105640009B00310E184603F101099F1CDD1C0491DB
:1056500002930DF063FE0499029B8142C6F3074A50
:10566000C6F307281846F6B201D00DF06BFE484687
:105670000DF054FE82455146484601D00DF062FEC1
:1056800038460DF04BFE80454146384601D00DF0BE
:1056900059FE28460DF042FE86423146284601D08A
:1056A0000DF050FE646A002CC6D1089DDDF82490F0
:1056B000214A536955F82320002445F82340002A45
:1056C00040F014851C48036A55F82320002145F852
:1056D00023100AB101230360194D0DF0DFFF2B6881
:1056E00044F61F62C01A904200F27D8412490B6892
:1056F000002B3FF453AFFFF799FE4FE70C95FF1FC8
:10570000E4E0FF1F0895FF1F58A2FF1F6C87FF1FD3
:1057100050A2FF1FFCB1FF1FAC96FF1F1C9CFF1F78
:10572000309FFF1F9098FF1FD40C0020B096FF1FE2
:10573000A4C1FF1F8498FF1FBC96FF1F44D1FF1F09
:10574000E494FF1F294C2A4BE26953F822504FF092
:10575000000843F82280002D40F0C687626B53F8A2
:10576000221043F82250002941F00082214F079770
:10577000A36A2149A26E51F8233057F82250E36200
:10578000E5661C4E194C8BB10DF088FF0746284684
:1057900011F034F9194D0146194811F037FA11F09A
:1057A0006DFB2B68FB1A9842C1F0C5800F480021A1
:1057B00008F07CFB134C25680EF0CEFD11F01EF9AD
:1057C00006463146284611F00BFB00B935462560E8
:1057D0000DF064FF0C4B1B68C01AB0F5FA6FFFF4B4
:1057E000DDAE0248FBF7E4FFD8E600BF9498FF1F48
:1057F000A4C1FF1F44D1FF1F00B2FF1F0495FF1F6C
:1058000000247449F494FF1FF094FF1FC54CD9F88D
:105810000020D4F82431C44DD31A102B6DD92A6836
:10582000D4F8103129686069C4F82421CB1A462BBA
:10583000D0F8A02001F23882D9F80020236ED0F8E9
:105840009810B94EB74DD31A462B01F21782D9F8EA
:105850000020D4F88030D0F89C10B34EB14DD31A4C
:10586000462B01F2BA82D9F80020236CD0F89410AC
:10587000AD4EAC4DD31A462B01F29E82D9F80030C2
:10588000C4F828310368A84E1B69A64D9847D9F87B
:105890000020D4F8A030D31A462B01F2B2826269FC
:1058A000D4F8EC30D2F8A8101960D9F80020D4F858
:1058B000F0309C4D9C4ED31A462B01F2D181D9F881
:1058C0000020D4F8DC30984E964DD31A462B01F2C6
:1058D000CA82D9F80020D4F8C830934E914DD31A1B
:1058E000462B01F2B1826369D4F83021D3F88830B5
:1058F0008C49934218BFC1F83031D9F80020D4F850
:105900002C31894E874DD31AB3F57A7F00F2F68198
:10591000864CD9F80020D4F82431834DD31A102BAB
:105920006DD92A68D4F8103129686069C4F8242137
:10593000CB1A462BD0F8A02001F2A482D9F800207F
:10594000236ED0F89810784E784DD31A462B01F27A
:10595000FA81D9F80020D4F88030D0F89C10724E2B
:10596000724DD31A462B01F2DA81D9F80020236C4C
:10597000D0F894106C4E6D4DD31A462B01F2BE81B7
:10598000D9F80030C4F828310368674E1B69674DA9
:105990009847D9F80020D4F8A030D31A462B01F24A
:1059A00099816269D4F8EC30D2F8A8101960D9F85E
:1059B0000020D4F8F0305D4D5B4ED31A462B01F237
:1059C0004181D9F80020D4F8DC30574E574DD31A16
:1059D000462B01F22A82D9F80020D4F8C830524E62
:1059E000524DD31A462B01F2C4816369D4F8302199
:1059F000D3F888304D49934218BFC1F83031D9F8F7
:105A00000020D4F82C31484E484DD31AB3F57A7F94
:105A100000F2BC82464C6369D3F838210021C3F8F8
:105A20003811002A40F0B081D4F85C31404D002B91
:105A300040F02781C5F86431DFF8F8A0DAF81430B7
:105A4000D3F838210021C3F83811002A40F0288506
:105A5000DAF85C31374D002B40F0E484C5F864314E
:105A6000354B36495A6851F822509D60002D00F0A0
:105A7000CF84E56D2E4B35B1B3F860205B6E554297
:105A8000AB4281F21F80D9F80010D4F81471D4F819
:105A90001861254A264BC91BB142C1F0CF8010685E
:105AA000D3F81CC1C01B0CEB0601884281F01080AA
:105AB000D3F8100112680492CDF80CC010F09EFFCC
:105AC000049A8046D01B801B10F094FFDDF80CC0B8
:105AD0000646604610F08EFF0146304611F096F8FB
