:1000000000800020BD0100004538000009380000D4
:1000100009380000093800000938000009380000DC
:100020000938000009380000093800004538000090
:10003000453800000938000045380000F937000055
:1000400045380000453800004538000045380000BC
:1000500045380000453800004538000045380000AC
:10006000453800004538000045380000453800009C
:10007000453800004538000045380000453800008C
:10008000453800004538000045380000453800007C
:10009000453800004538000045380000453800006C
:1000A000453800004538000045380000453800005C
:1000B000453800004538000045380000453800004C
:1000C000453800004538000045380000453800003C
:1000D000453800004538000045380000453800002C
:1000E000453800004538000045380000453800001C
:1000F000453800004538000045380000453800000C
:1001000045380000453800004538000045380000FB
:1001100045380000453800004538000045380000EB
:1001200045380000453800004538000045380000DB
:1001300045380000453800004538000045380000CB
:1001400045380000453800004538000045380000BB
:1001500045380000453800004538000045380000AB
:1001600045380000053E00004538000045380000D5
:10017000453800004538000045380000453800008B
:10018000453800004538000045380000453800007B
:10019000453800004538000045380000453800006B
:1001A000453800004538000045380000453800005B
:1001B000453800004538000045380000574B4CF2E8
:1001C000205210B51A804DF628121A8000BF00BFC9
:1001D00003F03CFB524B4FF010621A60514A9A6098
:1001E000514ADA60A3F53043203B1A6812F480725A
:1001F00004D14E490A604FF4A8521A604C4B1A7849
:10020000110703D51A7842F008021A70494B4A4C7C
:100210004A482A221A704A4A00239918A14203D256
:10022000195899500433F8E7464B474900228B424E
:1002300002D243F8042BFAE74448454900235A58B0
:100240001A500433B3F5DE7FF9D1424B424A802184
:1002500003F8011B9342FBD1404B3C4A1A60404BD0
:100260000A221A70A3F5805324225A70A0221A7011
:100270009A799207FCD59A79D406FCD4394A9379B5
:1002800003F00C03082B374BF9D103221A714022DB
:100290005A719A799006FCD5324A9179314B4906C8
:1002A000FBD5314A314911600221516020221A7078
:1002B0009A7902F00C020C2AFAD12D4B2D4A1A60C1
:1002C0002D4B2E4A1A6000225A60072243F8042C54
:1002D0002B4AC3F80C2D62B603F056FC134B1B6877
:1002E000DA0705D5274803F0CBFA274B274A1A60CF
:1002F000274B1B785B0609D5234C244A236893427D
:1003000004D1204803F0BCFA0023236005F0B0FBC1
:1003100003F0A2FA04F0E0FAFEE700BF0E20054069
:1003200030800440823F04000100002B14D00340C1
:1003300002D0074000E00740C090FF1F94D90000A2
:100340006087FF1FC090FF1FD4D9FF1F0082FF1FCF
:100350000000000000E400E05FE400E008ED00E0E1
:100360000050064000400640448004400000030165
:1003700004800440C010050014E000E0FF76010096
:1003800000002020D055F35F1CE00340A5C3945A21
:1003900000F00740FFFFFFFFFFFFFFFFFFFFFFFF32
:1003A000FFFFFFFFFFFFFFFFFFFFFFFFFFFFFFFF5D
:1003B000FFFFFFFFFFFFFFFFFFFFFFFFFFFFFFFF4D
:1003C000FFFFFFFFFFFFFFFFFFFFFFFFFFFFFFFF3D
:1003D000FFFFFFFFFFFFFFFFFFFFFFFFFFFFFFFF2D
:1003E000FFFFFFFFFFFFFFFFFFFFFFFFFFFFFFFF1D
:1003F000FFFFFFFFFFFFFFFFFFFFFFFFFFFFFFFF0D
:10040000FFFFFFFFFFFFFFFFFFFFFFFFFEFFFFFFFD
:1004100010B5054C237833B9044B13B10448AFF33E
:1004200000800123237010BDC090FF1F000000005A
:100430008CD9000008B5064B1BB106480649AFF33E
:1004400000800648036813B1054B03B1984708BD07
:10045000000000008CD90000C490FF1FC090FF1F57
:100460000000000010B5064C0649236820465B6872
:100470001D2298472046BDE8104004F035BA00BF61
:1004800078D9FF1F58CF000038B54368154603B927
:1004900038BD0A4C0A49236811225B6820469847F8
:1004A000284606F093F92368024629465B682046F1
:1004B00098472046BDE8384004F016BA78D9FF1FA7
:1004C00078CF000038B5044608460D4606F07EF9A0
:1004D0002368024629465B68204698470546204621
:1004E00004F002FA284438BD2DE9F04F9E4D2B68E8
:1004F000DB0783B0044657D5D4F8E837002B3BD050
:100500009A4A9B4B12681B68D31AF92B34D80027E0
:100510000FE0D4F8E4576B1CC4F8E43704F078F823
:1005200025442873D4F8E437E218B3F57A7F1773BB
:1005300026D004F0B9F8002605460028E9D1237B2F
:100540000A2B15D0637B0A2B12D0D4F8E4377BB189
:100550002344DB7A0A2B34D00D2B32D0D4F8E83781
:100560001BB9824A824B12681A600123C4F8E8372B
:10057000284603B0BDE8F08F0023C4F8E437C6E78F
:100580007C4D7D492B680D225B682846984728469C
:1005900004F0AAF935462846C4F8E467267384F8BF
:1005A000F56303B0BDE8F08F284603F05FF900283B
:1005B000A2D06E4A6E4B12681A60284603F05CF9AE
:1005C0009AE7A2680023C4F8E837C4F8E03704F1DA
:1005D0000C07002A40F08880104604F2F5363246B7
:1005E00001AB6649384405F0B5FFD4F8E017019A2D
:1005F00023680A440132C4F8E02731465B6820468C
:100600003A4698475E498046304605F0D1FF0028BB
:1006100000F0828030465B4905F0CAFF002857D0C1
:100620003046594905F0C4FF002800F0818030466B
:10063000564905F0BDFF002800F086803046544939
:1006400005F0B6FF002800F08B803046514905F0D8
:10065000AFFF002800F0BC8030464F4905F0A8FFEE
:100660008146002800F0C08030464C4905F0A0FFCC
:100670008146002800F0E0803046494905F098FFA7
:100680008146002800F00A813046464905F090FF77
:10069000002800F0FA803046434905F089FF60B930
:1006A00042493448FFF70EFF04F0C0F80A2003F077
:1006B00057FA3F4B3F4A1A60012518EB05057FF4B6
:1006C00057AF236831463A469B68204698474FE724
:1006D000284D39492B6828465B68152298472846DB
:1006E00004F002F90125E8E7224E34493368304628
:1006F0005B6802229847A3685BB1384606F066F84B
:10070000336802465B68304639469847304604F005
:10071000EBF8D4F8E00760E7164D29492B68284626
:100720005B680F229847284604F0DEF80125C4E7ED
:10073000104D24492B6828465B680C2298472846B0
:1007400004F0D2F80125B8E70A4D1F492B68284666
:100750005B680A229847284604F0C6F80125ACE7F2
:10076000044D1A49F2E700BFE090FF1F80D8FF1F39
:10077000DC90FF1F78D9FF1F8CCF0000A0CF0000B6
:10078000A8CF0000BCCF0000DCCF0000F0CF0000FD
:1007900004D0000018D0000038D0000050D0000075
:1007A00060D0000094D00000A4D000009CD00000D5
:1007B0000CED00E00400FA05C4CF00009CCF00005F
:1007C000ACCF0000E0CF0000F8CF00000CD000005C
:1007D0006B4D6C492B6828465B6818229847284661
:1007E00004F082F8012568E7D4F8E007664902AD15
:1007F0006A4601AB384445F8089D05F0ABFED4F8D5
:10080000E007019B6049DDF800A0CDF80090184496
:100810006A4601ABC4F8E007384405F09BFE9DE84A
:100820000A00D4F8E02713445FFA8AF0C4F8E037EE
:1008300003F07CF8012540E7D4F8E007524902AD07
:100840006A4601AB384445F8089D05F083FED4F8AC
:10085000E007019B4C49DDF800A0CDF8009018445A
:100860006A4601ABC4F8E007384405F073FED4F8DB
:10087000E027019B9DF8001013445FFA8AF0C4F84A
:10088000E03703F00DF8012517E740493C48FFF732
:1008900019FE03F0CBFF00BE01250EE7DFF818A11B
:1008A0003B4BDAF80010364DDFF810B1A3FB010125
:1008B000090E28460A224B4604F026F82B683549D3
:1008C0005B682846052298472B6833495B682846B1
:1008D00001229847DAF80010304B314AA3FB01039C
:1008E0005B0DA2FB0312120902EB4201A3EBC10153
:1008F00028460A224B4604F007F82B6829495B6812
:100900002846062298472B6823495B68284601221F
:100910009847DAF80020244BA3FB02039B0BABFBA8
:1009200003125209C2EB0211A3EB810128460A22ED
:100930004B4603F0E9FF2B681C495B6828460822F8
:1009400098472B6814495B68284601229847DAF8D3
:100950000020174BA3FB02029209ABFB02135B09B9
:10096000C3EB0311A2EB81014B4628460A2203F098
:10097000CBFF28460F49FFF7A5FD01259DE600BFE7
:1009800078D9FF1F1CD0000048D000009CD0000088
:100990003BD4B53168D0000070D00000B17C219507
:1009A000ABAAAAAA74D0000073B2E7457CD00000BD
:1009B000D34D621088D0000080D8FF1F89888888B6
:1009C0002DE9F0410C4682B005467A49204616468C
:1009D00005F0EEFD002843D02046774905F0E8FDFC
:1009E000002867D02046754905F0E2FD002845D073
:1009F0002046734905F0DCFD002869D02046714986
:100A000005F0D6FD002847D020466F4905F0D0FDFF
:100A1000002874D020466D4905F0CAFD074600281D
:100A200079D020466A4905F0C3FD0746002800F04A
:100A300099802046674905F0BBFD0546002800F077
:100A4000E5802046644905F0B3FD002800F04E81A2
:100A50002046624905F0ACFD00283CD000200AE0A9
:100A60005F4C604923680F225B6820469847204608
:100A700003F03AFF012002B0BDE8F081584C5A491A
:100A800023680C225B6820469847204603F02CFF21
:100A9000012002B0BDE8F081514C544923680A227C
:100AA0005B6820469847204603F01EFF012002B0F5
:100AB000BDE8F0814A4C4E49236815225B68204608
:100AC0009847204603F010FF012002B0BDE8F081F6
:100AD000434C4849E2E7424C4749236804225B689B
:100AE00020469847204603F0FFFE03F09FFE0A20B1
:100AF00003F036F8414B424A1A600120BBE7384CFC
:100B00004049236818225B6820469847204603F036
:100B1000EBFE0120AFE7D5F8E0073B4902AC6A469F
:100B200001AB304444F8087D05F014FDD5F8E0072A
:100B3000019B3549DDF80080009718446A4601ABF7
:100B4000C5F8E007304405F005FD9DE80A00D5F83A
:100B5000E02713445FFA88F0C5F8E03702F0E6FEBC
:100B6000012088E7D5F8E007274902AC6A4601ABC7
:100B7000304444F8087D05F0EDFCD5F8E007019B12
:100B80002149DDF80080009718446A4601ABC5F89A
:100B9000E007304405F0DEFCD5F8E027019B9DF826
:100BA000001013445FFA88F0C5F8E03702F078FED1
:100BB000012060E7A8CF0000BCCF0000DCCF000020
:100BC000F0CF000004D0000018D0000038D00000A2
:100BD00050D0000060D0000094D00000A4D00000ED
:100BE00078D9FF1FACCF0000E0CF00000CD0000090
:100BF000C4CF0000F8CF00009CD000000CED00E056
:100C00000400FA051CD0000048D000003F4E404BC5
:100C10003168404C404FA3FB0101090E0A222B46CC
:100C2000204603F071FE23683C495B68052220469C
:100C3000984723683A495B68012220469847316803
:100C4000384B394AA3FB01035B0DA2FB03121209C7
:100C500002EB4201A3EBC1010A222B46204603F01E
:100C600053FE236831495B68062220469847236873
:100C70002B495B6801222046984732682C4BA3FB26
:100C800002039B0BA7FB03125209C2EB0211A3EB59
:100C900081010A222B46204603F036FE23682549AF
:100CA0005B6808222046984723681D495B6801223B
:100CB000204698473268204BA3FB02029209A7FB0B
:100CC00002177F09C7EB0711A2EB81012B460A220D
:100CD000204603F019FE236818495B680822204665
:100CE0009847204603F000FE0120C4E6094C144951
:100CF000236804225B6820469847204603F0F4FDF1
:100D000003F094FD00BE0120B5E600BF80D8FF1FB0
:100D10003BD4B53178D9FF1F8988888868D0000016
:100D200070D00000B17C2195ABAAAAAA74D00000B3
:100D300073B2E7457CD00000D34D621088D000002C
:100D40009CD00000024B4FF4FA621A60704700BF5B
:100D50006487FF1F2DE9F0476D4C2368DB0784B0E3
:100D600040F18C81DFF8C8916A4CD4F8E837002B49
:100D700000F0BA80684BD9F800201B68D31AF92B11
:100D800000F2B2804FF0000811E0D4F8E4576B1C79
:100D9000C4F8E43703F03CFCD4F8E4372544E21807
:100DA000B3F57A7F287382F80C8000F0A18003F0FD
:100DB0007BFC584E00270028E7D1227B0A2A17D057
:100DC000727B0A2A14D0D6F8E4278AB13244D27A48
:100DD0000A2A00F08E810D2A00F08B81D6F8E837C0
:100DE0001BB94D4BD9F800201A600123C4F8E8372D
:100DF0004A4B1B684A4AD9F800101268CB1A934232
:100E000040F2B480474A484F002313603B60474B91
:100E1000D9F800101A6846488A1A102A61D9414A3E
:100E200012683A60002A5CD0424D434C6A680168FF
:100E300054F822001960002344F82230002840F0C2
:100E40004D813E4B5B6854F82320002144F8231069
:100E5000002A40F07E813A4A6B683A4C52F82330BF
:100E60002268AB609A4217D02360374D002B00F008
:100E70002B812B6835495B682846162298472846FF
:100E800003F032FD2368002B00F01781304B31480E
:100E90005968186001F03AFF2F4A304CD9F8000029
:100EA00053682F4DE16955F823309360411A462964
:100EB0001F4E184600F2F28004F060FD0546294CF2
:100EC0001B4EE3681D60D9F800202369D31A462B16
:100ED00007D96068A560294601F042F808B1336877
:100EE000236104B0BDE8F0870023C4F8E43749E784
:100EF000154C1D4923680D225B6820469847204603
:100F000003F0F2FCC6F8E477377386F8F5736FE701
:100F1000E090FF1F94D0FF1FDC90FF1F0C92FF1F7B
:100F20006487FF1FB0A1FF1F0492FF1FF890FF1FEF
:100F300080D8FF1FE490FF1F54B1FF1FD091FF1F07
:100F4000B4A1FF1FF891FF1F78D9FF1FD4D0000074
:100F5000FC91FF1F04D10000DC91FF1FFC90FF1FDC
:100F6000F4C0FF1F6C91FF1F8CCF00008B4FD7F890
:100F70000080B8F1000F7FF44AAF894B1B683B60DB
:100F8000002B3FF444AF874C87492368874E5B684A
:100F9000874D1A2220469847204603F0A5FC236877
:100FA00084495B680C2220469847834BD3F800A005
:100FB000504605F00BFC2368024651465B6820460C
:100FC000984723687D495B6820460122444698473C
:100FD00033193059596801F0E9FB2B192859596820
:100FE000083401F039F9282CF2D1754D6F4CAE68F8
:100FF000EA682B6995E803006D690096714E0195CA
:1010000000F0EEFF96E8030032697369B668009657
:101010004FF0FF36019600F0ABFB6B4B644D9868C8
:101020005E68D3F8008004F0FDFC3146024640467D
:1010300000F0D4FC654B93E8070002F009F9644B1B
:1010400093E8070002F004F9624B93E8030001F013
:10105000ADFB614B93E8030001F0FEF804F12806B4
:10106000A06AE16A01F0A2FB0834A86AE96A01F00B
:10107000F3F8B44205F10805F2D1C8E6204602F0C3
:10108000F5FBDFF87C9100283FF46EAE534BD9F8A6
:1010900000201A60204602F0EFFB65E6A36004F032
:1010A0006DFC676805462946384600F059FF002860
:1010B0003FF405AF3368E36101E7464B48485968A0
:1010C000186001F023FEE7E62B6846495B68284676
:1010D00017229847284603F007FCD3E6314E4249D1
:1010E000336830465B6810229847304603F0FCFBBB
:1010F000A7E6A2683D4D0023C4F8E837C4F8E037FE
:10110000002A3AD1394D3A49A01803AB05F2F5321D
:101110000C3005F01FFAD4F8E027039B2168134434
:101120000133C4F8E0374B6805F10C0205F2F531E4
:101130002846984705F2F531044605F10C02284689
:10114000FFF73EFC204478B12A4AD9F800301360FA
:1011500050E6144C2849236820465B6810229847C3
:10116000204603F0C1FB76E62B6828469B6805F213
:10117000F53105F10C0298473AE60A4E1F493368EB
:1011800030465B6802229847AB6823B1304605F1D0
:101190000C01FFF797F9D5F8E027B3E70492FF1F9A
:1011A000B0A1FF1F78D9FF1F48D100008091FF1F19
:1011B0001C91FF1F64D100006087FF1F74D10000E5
:1011C000DC91FF1FFC90FF1F6C91FF1FE490FF1F3D
:1011D000D091FF1FFC91FF1FF090FF1FDC90FF1FBD
:1011E0001CD10000ECD00000ACD0000094D0FF1F58
:1011F000A0CF00000C92FF1FC0D000009CCF0000C9
:1012000080D8FF1F2DE9F0410E4684B031490446D5
:1012100005F0CEF900284FD020462F4905F0C8F937
:1012200018B1002004B0BDE8F0812C4D2C492D4CA4
:1012300004AF03AB47F8080DD5F8E0073A46304451
:1012400005F088F9D5F8E027039BDDF808802649EA
:1012500002EB030E002002903A4606EB0E0003ABB1
:10126000C5F8E0E705F076F9D5F8E067039A23685A
:101270001E49029F3244C5F8E0275B6816222046CB
:1012800098474146204603F07BFB236818495B687A
:101290000B2220469847384603F058FF0B460221A0
:1012A00002460091204603F077FB204603F01CFB2A
:1012B000012004B0BDE8F0810A4C0E4923680C22DD
:1012C0005B6820469847204603F00EFB012004B0DF
:1012D000BDE8F08178D1000090D1000094D0FF1FCC
:1012E00048D0000078D9FF1F98D10000A0D100009D
:1012F000B8D1000080D1000038B508460C46114630
:10130000154600F0DFF808B1012038BD2046294617
:10131000FFF778FF003018BF012038BDF0B44E4C05
:1013200023684E4A53604FF0FF30506100219161B5
:101330004B4D15609060D16090251561494A02F1CE
:101340000C059561D161484D15606FF00105956000
:1013500011614FF4907555619D1C5560434A02F12F
:101360000805D5601161424D1560424D95605F1DC5
:101370001D1D55609E1D404A5760404D156091608F
:101380003F4D45F827103F4A56603F491160906035
:1013900045F826003D4AD91D51603D4911603D4A3E
:1013A00003F1080151603C49116003F10900D0606C
:1013B000916003F10A005061116103F10B00D061EB
:1013C000916103F10C005062116203F10D00D062D3
:1013D000916203F10E005063116303F10F00D063BB
:1013E000916303F110005064116403F11100D064A3
:1013F00091642A4A03F11200506029481060294A7A
:1014000003F113005060116003F11400D06091608B
:1014100003F115005061116103F11600D061916173
:1014200003F117005062116203F11800D06291625B
:1014300003F119005063116303F11A00D063916343
:1014400003F11B005064116403F11D0020601C3384
:10145000D3649164F0BC70470892FF1FDC91FF1FBA
:10146000C4D10000FC90FF1FD4D100006C91FF1F7D
:10147000E4D10000000080BFE490FF1FF4D1000021
:10148000B4A1FF1FD091FF1F04D20000FC91FF1FE9
:1014900014D200008091FF1F70D10000F090FF1F58
:1014A00028D200001C91FF1F38B505460C4608469F
:1014B00005F08CF902462B685B6828462146984760
:1014C00038BD00BF2DE9F04383B004460D46914975
:1014D00005F06EF850BB4FF0000802AE46F8088DDC
:1014E0008D4CD4F8E0078D4F284439466A4601AB4D
:1014F00005F030F8D4F8E007019B1844C4F8E00781
:10150000DDF80090CDF80080284439466A4601ABEA
:1015100005F020F8D4F8E027019B1344C4F8E03725
:101520007F4A009B42F829300120EFE020467D49A8
:1015300005F03EF8D8B902AA002342F8083D764CDF
:10154000D4F8E007284475496A4601AB05F002F873
:10155000D4F8E027019B1344C4F8E037009A724B9B
:1015600053F82210013143F822100120CEE020462A
:101570006E4905F01DF850BB4FF0000802AE46F86A
:10158000088D654CD4F8E007644F284439466A4614
:1015900001AB04F0DFFFD4F8E007019B1844C4F866
:1015A000E007DDF80090CDF80080284439466A460F
:1015B00001AB04F0CFFFD4F8E027019B1344C4F83B
:1015C000E0375B4A009B42F8293001209EE020462C
:1015D000584904F0EDFF50BB4FF0000802AE46F84A
:1015E000088D4D4CD4F8E0074C4F284439466A46E4
:1015F00001AB04F0AFFFD4F8E007019B1844C4F836
:10160000E007DDF80090CDF80080284439466A46AE
:1016100001AB04F09FFFD4F8E027019B1344C4F80A
:10162000E037454A009B42F8293001206EE0204611
:10163000424904F0BDFFB8B903F0F8F8052002F004
:101640008FFA3F4C23685B6820463E491122984739
:10165000204603F049F903F0E9F800233A4A136001
:101660003A4A1360012051E02046394904F0A0FFB6
:1016700058B9334C23685B6820463649072298479F
:10168000204603F031F9012040E02046324904F0C1
:101690008FFF58B92A4C23685B6820462F490522E2
:1016A0009847204603F020F901202FE020462C49DE
:1016B00004F07EFFB0B903F0B9F8052002F050FA4B
:1016C000284B1C68204605F081F802461C4801683A
:1016D0004D682146A84703F0A9F8052002F040FA1A
:1016E000012013E02046204904F062FF18B90120D0
:1016F000164B18600AE020461C4904F059FF20B937
:101700000022124B1A60012000E0002003B0BDE867
:10171000F08300BF54D2000094D0FF1F48D00000D7
:10172000F4C0FF1F58D2000054B1FF1F5CD200006C
:10173000B4A1FF1F60D200001092FF1F64D200000E
:1017400078D9FF1F74D200000492FF1FB0A1FF1FC1
:1017500088D2000090D2000098D20000A0D20000F1
:10176000A8D200006087FF1FB8D20000C0D20000DE
:101770002DE9F04383B00646894690461F46884CC3
:101780002468002C00F0098103F050F8854C236890
:101790005B6820468449082298472368834D5B682C
:1017A0002046294601229847304605F00FF80246A8
:1017B00023685B6820463146984723685B6820466B
:1017C0002946012298472046494603F0D9F8236864
:1017D0005B6820462946012298472046414603F08F
:1017E000CFF823685B6820462946012298472046A7
:1017F000394603F0C5F823685B6820462946012274
:10180000984720460A9903F0BBF823685B68204696
:1018100029460122984720460B9903F0B1F820464B
:1018200003F062F8192002F09BF9614B1B6813F07A
:10183000010F0AD15E4802F019F830B15D4B1A6809
:101840005D4B1A605A4802F017F85C4BD3F8E83742
:1018500033B1584B1A68584B1B68D31AF92B26D949
:101860000022564BC3F8E42721E0D4F8E4576B1C60
:10187000C4F8E43702F0CCFE25442873D4F8E437EA
:10188000E2181673B3F57A7F13D1464C23685B6870
:1018900020464B490D229847204603F025F8474B38
:1018A0000022C3F8E4271A7383F8F52361E0434C60
:1018B000002602F0F9FE0028D7D1404B1B7B0A2BF3
:1018C00057D03E4B5B7B0A2B53D03C4BD3F8E437CD
:1018D000002B4ED0394A1344DB7A0A2B0DD00D2B46
:1018E0000BD0D2F8E8371BB9324B1A68324B1A606A
:1018F0000122324BC3F8E8273BE0304B0022C3F80B
:10190000E827C3F8E0279B6853B126482D49FFF725
:10191000CBFD2A4B9B681BB122482B49FEF7D2FD19
:10192000264CD4F8E037E01804F2F5360C3027499D
:10193000324601AB04F00EFED4F8E027019B1344BD
:101940000133C4F8E037254655F80C3B5B68204668
:1019500031462A4698470746204631462A46FFF731
:101960002FF83844A0B923689B68204631462A46A0
:101970009847104B1A68164B1B68D21A154B1B68F8
:101980009A420AD90023064A1360134A136004E0FE
:10199000084B1A680E4B1A60EBE703B0BDE8F08302
:1019A000B0A1FF1F78D9FF1F2CD3000088CF000003
:1019B000E090FF1F80D8FF1FDC90FF1F94D0FF1F17
:1019C0008CCF00009CCF0000A0D0FF1FA0CF000054
:1019D0000C92FF1F6487FF1F0492FF1F2DE9F04345
:1019E00083B00546884617469B4B1B68002B00F0CA
:1019F00083829A4C23685B6820469949082298475D
:101A00002368984E5B682046314601229847284655
:101A100004F0DCFE024623685B68204629469847AE
:101A200023685B682046314601229847204641469C
:101A300002F0A6FF23685B682046314601229847E2
:101A40002046394602F09CFF204602F04DFF192047
:101A500002F086F8844B1B6813F0010F0AD182480C
:101A600001F004FF30B1814B1A68814B1A607E4847
:101A700001F002FF7F4BD3F8E83733B17B4B1A6894
:101A80007B4B1B68D31AF92B26D90022794BC3F85C
:101A9000E42721E0D4F8E4576B1CC4F8E43702F0E3
:101AA000B7FD25442873D4F8E437E2181673B3F56C
:101AB0007A7F13D1694C23685B6820466E490D22FA
:101AC0009847204602F010FF6A4B0022C3F8E42733
:101AD0001A7383F8F523FBE1664C002602F0E4FD5F
:101AE00005460028D6D1634B1B7B0A2B00F0F08102
:101AF000604B5B7B0A2B00F0EB815E4BD3F8E43745
:101B0000002B00F0E5815B4A1344DB7A0A2B0DD0F1
:101B10000D2B0BD0D2F8E8371BB9544B1A68544B35
:101B20001A600122534BC3F8E827D1E1514B002240
:101B3000C3F8E827C3F8E0279B6853B147484F49EB
:101B4000FFF7B2FC4B4B9B681BB144484C49FEF776
:101B5000B9FC484CD4F8E037E01804F2F5360C3004
:101B60004849324601AB04F0F5FCD4F8E027019B6C
:101B700013440133C4F8E037224652F80C3B5B684B
:101B8000204631469847074630463F4904F010FD4D
:101B900058B9324C23685B6820463C490F2298476D
:101BA000204602F0A1FE012588E13948394904F0B8
:101BB000FFFC58B9294C23685B682046364915223A
:101BC0009847204602F090FE012577E130483349DE
:101BD00004F0EEFC58B9214C23685B68204630497C
:101BE0000C229847204602F07FFE012566E1284836
:101BF0002C4904F0DDFC58B9184C23685B6820467A
:101C000029490A229847204602F06EFE012555E137
:101C10001F48264904F0CCFC58B9104C23685B6877
:101C2000204623490A229847204602F05DFE0125FE
:101C300044E117481F4904F0BBFC00283ED1074C83
:101C400023685B6820461C4918229847204602F00A
:101C50004BFE012532E100BFB0A1FF1F78D9FF1F65
:101C600038D3000088CF0000E090FF1F80D8FF1F0E
:101C7000DC90FF1F94D0FF1F8CCF00009CCF000092
:101C8000A0D0FF1FA0CF0000A8CF0000ACCF000065
:101C900089D4FF1FBCCF0000C4CF0000DCCF000000
:101CA000E0CF0000F0CF0000F8CF000004D000002B
:101CB0000CD0000018D000001CD0000090489149C2
:101CC00004F076FC68BB4FF0000802AD45F8088DC3
:101CD0008D4CD4F8E037E0188C4E0C3031466A4613
:101CE00001AB04F037FCD4F8E027019B1344C4F89F
:101CF000E037DDF80090CDF80080E0180C30314678
:101D00006A4601AB04F026FCD4F8E027019B13449B
:101D1000C4F8E0375FFA89F0009901F007FE012569
:101D2000CCE077487A4904F043FC70BB4FF00008E0
:101D300002AD45F8088D744CD4F8E037E018734EC6
:101D40000C3031466A4601AB04F004FCD4F8E027BD
:101D5000019B1344C4F8E037DDF80090CDF8008013
:101D6000E0180C3031466A4601AB04F0F3FBD4F8BE
:101D7000E027019B1344C4F8E0375FFA89F09DF82F
:101D8000001001F08DFD012598E05D48614904F0E7
:101D90000FFC002866D1604E3168604C2046604BD5
:101DA000B1FBF3F10A22002302F0AEFD23685B6869
:101DB00020465C49052298472368DFF8A0815B68CC
:101DC00020464146012298473268574BB2FBF3F256
:101DD0001823B2FBF3F1204603FB11210A22002352
:101DE00002F092FD23685B6820465049062298471E
:101DF00023685B68204641460122984732684EF6C8
:101E00006023B2FBF3F33C25B3FBF5F1204605FB61
:101E100011310A22002302F077FD23685B68204617
:101E200043490822984723685B68204641460122BF
:101E3000984732684FF47A73B2FBF3F3B3FBF5F1D2
:101E4000204605FB11310A22002302F05DFD2368C4
:101E50005B682046374908229847204602F044FD37
:101E600001252BE02648344904F0A2FB70B92B4C25
:101E700023685B682046314904229847204602F0D7
:101E800033FD02F0D3FC00BE012517E01C482C49AD
:101E900004F08EFB90B9214C23685B6820462749EB
:101EA00004229847204602F01FFD02F0BFFC0A20E2
:101EB00001F056FE234A244B1A6001253D44B5B972
:101EC000114A13689B68104602F2F5310C329847AC
:101ED000114B1A681D4B1B68D21A1D4B1B689A4286
:101EE0000AD900231B4A13601B4A136004E00A4B03
:101EF0001A68164B1A60EBE703B0BDE8F08300BF29
:101F000089D4FF1F38D0000094D0FF1F48D00000B4
:101F100050D0000060D0000080D8FF1F78D9FF1F8C
:101F2000005C260568D0000080EE360074D000000A
:101F30007CD0000088D0000094D000009CD000002D
:101F4000A4D000000400FA050CED00E00C92FF1F85
:101F50006487FF1FB0A1FF1F0492FF1F70D0000015
:101F6000F0B583B006460D46194B1B68002B2AD0EE
:101F700002F032FC0E2828DD164C23685B682046F0
:101F80001549022298472368144F5B68204639465A
:101F9000012298472046314602F0F2FC23685B6834
:101FA0002046394601229847284603F0CFF80246DA
:101FB0000B4602210091204602F0EEFC204602F082
:101FC00093FC012002E0002000E0002003B0F0BDFF
:101FD000B0A1FF1F78D9FF1F44D3000088CF0000B5
:101FE0002DE9F04383B007460E46914698468A4C49
:101FF0002468002C00F00D81884B0A9A43F82120B8
:10200000874C23685B6820468649062298472368E8
:10201000854D5B682046294601229847384604F0E2
:10202000D5FB024623685B682046394698472368FB
:102030005B6820462946012298472046314602F037
:102040009FFC23685B68204629460122984720466A
:10205000494602F095FC23685B6820462946012228
:1020600098472046414602F08BFC23685B68204677
:1020700029460122984720460A9902F081FC2368EC
:102080005B68204629460122984720460B9902F0BA
:1020900077FC204602F028FC02F0C8FB192001F072
:1020A0005FFD624B1B6813F0010F0AD15F4801F01E
:1020B000DDFB30B15E4B1A685E4B1A605B4801F085
:1020C000DBFB5D4BD3F8E83733B1594B1A68594BFA
:1020D0001B68D31AF92B26D90022574BC3F8E427E3
:1020E00021E0D4F8E4576B1CC4F8E43702F090FA0E
:1020F00025442873D4F8E437E2181673B3F57A7FD1
:1021000013D1474C23685B6820464C490D22984701
:10211000204602F0E9FB484B0022C3F8E4271A737B
:1021200083F8F52361E0444C002602F0BDFA002854
:10213000D7D1414B1B7B0A2B57D03F4B5B7B0A2BE4
:1021400053D03D4BD3F8E437002B4ED03A4A1344DA
:10215000DB7A0A2B0DD00D2B0BD0D2F8E8371BB948
:10216000334B1A68334B1A600122334BC3F8E8270C
:102170003BE0314B0022C3F8E827C3F8E0279B6817
:1021800053B127482E49FFF78FF92B4B9B681BB1A2
:1021900023482C49FEF796F9274CD4F8E037E0188D
:1021A00004F2F5360C302849324601AB04F0D2F97E
:1021B000D4F8E027019B13440133C4F8E0372546E7
:1021C00055F80C3B5B68204631462A46984707463F
:1021D000204631462A46FEF7F3FB3844A0B923686F
:1021E0009B68204631462A469847114B1A68174B80
:1021F0001B68D21A164B1B689A420AD90023064A5A
:102200001360144A136004E0094B1A680F4B1A60FC
:10221000EBE703B0BDE8F083B0A1FF1FF4C0FF1FE0
:1022200078D9FF1F54D3000088CF0000E090FF1F33
:1022300080D8FF1FDC90FF1F94D0FF1F8CCF0000C1
:102240009CCF0000A0D0FF1FA0CF00000C92FF1F6A
:102250006487FF1F0492FF1F2DE9F04383B00546FA
:102260000E46934B1B68002B00F06C82914C236848
:102270005B68204690490822984723688F4F5B6827
:102280002046394601229847284604F09FFA024624
:1022900023685B6820462946984723685B68204688
:1022A0003946012298472046314602F069FB204614
:1022B00002F01AFB192001F053FC814B1B6813F04C
:1022C000010F0AD17E4801F0D1FA30B17D4B1A6876
:1022D0007D4B1A607A4801F0CFFA7C4BD3F8E8378F
:1022E00033B1784B1A68784B1B68D31AF92B26D96F
:1022F0000022764BC3F8E42721E0D4F8E4576B1CA6
:10230000C4F8E43702F084F925442873D4F8E4379C
:10231000E2181673B3F57A7F13D1664C23685B68B5
:1023200020466B490D229847204602F0DDFA674BA4
:102330000022C3F8E4271A7383F8F523EEE1634C17
:10234000002602F0B1F905460028D6D15F4B1B7B71
:102350000A2B00F0E3815D4B5B7B0A2B00F0DE81F2
:102360005A4BD3F8E437002B00F0D881574A134476
:10237000DB7A0A2B0DD00D2B0BD0D2F8E8371BB926
:10238000504B1A68504B1A600122504BC3F8E82793
:10239000C4E14E4B0022C3F8E827C3F8E0279B684E
:1023A00053B144484B49FFF77FF8484B9B681BB13A
:1023B00040484949FEF786F8444CD4F8E037E01825
:1023C00004F2F5360C304549324601AB04F0C2F850
:1023D000D4F8E027019B13440133C4F8E0372246C8
:1023E00052F80C3B5B68204631469847074630461A
:1023F0003B4904F0DDF858B92E4C23685B68204651
:1024000038490F229847204602F06EFA01257BE1F9
:102410003548364904F0CCF858B9264C23685B6837
:102420002046334915229847204602F05DFA0125DF
:102430006AE12D482F4904F0BBF858B91D4C2368B8
:102440005B6820462C490C229847204602F04CFA43
:10245000012559E12448294904F0AAF858B9154C36
:1024600023685B68204626490A229847204602F0E6
:102470003BFA012548E11C48224904F099F828B9A3
:102480000C482149FEF71EF801253DE116481F4979
:1024900004F08EF800283DD1064C23685B68204686
:1024A0001B4918229847204602F01EFA01252BE10D
:1024B000B0A1FF1F78D9FF1F64D3000088CF0000B0
:1024C000E090FF1F80D8FF1FDC90FF1F94D0FF1FFC
:1024D0008CCF00009CCF0000A0D0FF1FA0CF000039
:1024E000A8CF0000ACCF000089D4FF1FBCCF0000F4
:1024F000C4CF0000DCCF0000E0CF0000F0CF000030
:10250000F8CF000004D000000CD0000018D000006C
:102510001CD000008D488E4904F04AF868BB4FF08B
:10252000000802AD45F8088D8A4CD4F8E037E01871
:10253000894E0C3031466A4601AB04F00BF8D4F8F2
:10254000E027019B1344C4F8E037DDF80090CDF894
:102550000080E0180C3031466A4601AB03F0FAFF08
:10256000D4F8E027019B1344C4F8E0375FFA89F000
:10257000009901F0DBF90125C6E07448774904F0C1
:1025800017F870BB4FF0000802AD45F8088D714C8C
:10259000D4F8E037E018704E0C3031466A4601AB93
:1025A00003F0D8FFD4F8E027019B1344C4F8E037C8
:1025B000DDF80090CDF80080E0180C3031466A4616
:1025C00001AB03F0C7FFD4F8E027019B1344C4F824
:1025D000E0375FFA89F09DF8001001F061F90125FC
:1025E00092E05A485E4903F0E3FF002866D15D4E51
:1025F00031685D4C20465D4BB1FBF3F10A220023AC
:1026000002F082F923685B68204659490522984701
:102610002368DFF894815B68204641460122984791
:102620003268544BB2FBF3F21823B2FBF3F12046AD
:1026300003FB11210A22002302F066F923685B687C
:1026400020464D490622984723685B68204641464C
:102650000122984732684EF66023B2FBF3F33C2523
:10266000B3FBF5F1204605FB11310A22002302F0ED
:102670004BF923685B682046404908229847236845
:102680005B68204641460122984732684FF47A73CE
:10269000B2FBF3F3B3FBF5F1204605FB11310A223F
:1026A000002302F031F923685B6820463449082290
:1026B0009847204602F018F9012525E023483149C2
:1026C00003F076FF40B928482F49FDF7FBFE02F0E2
:1026D000ADF800BE012517E01C482C4903F068FF47
:1026E00090B9214C23685B6820462749042298470B
:1026F000204602F0F9F802F099F80A2001F030FAC9
:10270000234A244B1A6001253D44B5B9114A136888
:102710009B68104602F2F5310C329847114B1A684B
:102720001D4B1B68D21A1D4B1B689A420AD9002305
:102730001B4A13601B4A136004E00A4B1A68164BCD
:102740001A60EBE703B0BDE8F08300BF89D4FF1F38
:1027500038D0000094D0FF1F48D0000050D00000B7
:1027600060D0000080D8FF1F78D9FF1F005C2605CD
:1027700068D0000080EE360074D000007CD00000ED
:1027800088D0000094D000009CD00000A4D00000AD
:102790000400FA050CED00E00C92FF1F6487FF1F98
:1027A000B0A1FF1F0492FF1F70D000002DE9F0437D
:1027B00083B005460E46964B1B68002B00F07282D4
:1027C000944C23685B682046934909229847236804
:1027D000924F5B682046394601229847284603F00D
:1027E000F5FF024623685B68204629469847236820
:1027F0005B6820463946012298472046314602F060
:10280000BFF8204602F070F8192001F0A9F9844BB6
:102810001B6813F0010F0AD1814801F027F830B18D
:10282000804B1A68804B1A607D4801F025F87F4B79
:10283000D3F8E83733B17B4B1A687B4B1B68D31A4C
:10284000F92B26D90022794BC3F8E42721E0D4F8EC
:10285000E4576B1CC4F8E43701F0DAFE2544287312
:10286000D4F8E437E2181673B3F57A7F13D1694CC4
:1028700023685B6820466E490D229847204602F087
:1028800033F86A4B0022C3F8E4271A7383F8F52360
:10289000F4E1664C002601F007FF05460028D6D17A
:1028A000624B1B7B0A2B00F0E981604B5B7B0A2BA0
:1028B00000F0E4815D4BD3F8E437002B00F0DE81BB
:1028C0005A4A1344DB7A0A2B0DD00D2B0BD0D2F8C9
:1028D000E8371BB9534B1A68534B1A600122534B0C
:1028E000C3F8E827CAE1514B0022C3F8E827C3F830
:1028F000E0279B6853B147484E49FEF7D5FD4B4B47
:102900009B681BB143484C49FDF7DCFD474CD4F8AC
:10291000E037E01804F2F5360C304849324601AB96
:1029200003F018FED4F8E027019B13440133C4F8E8
:10293000E037224652F80C3B5B6820463146984708
:10294000074630463E4903F033FE58B9314C236800
:102950005B6820463B490F229847204601F0C4FFA0
:10296000012581E13848394903F022FE58B9294C44
:1029700023685B682046364915229847204601F0B7
:10298000B3FF012570E13048324903F011FE58B918
:10299000204C23685B6820462F490C22984720462C
:1029A00001F0A2FF01255FE127482C4903F000FE5A
:1029B00058B9184C23685B68204629490A22984771
:1029C000204601F091FF01254EE11F48254903F003
:1029D000EFFD58B90F4C23685B68204622490A2254
:1029E0009847204601F080FF01253DE116481F4928
:1029F00003F0DEFD00283DD1064C23685B682046CD
:102A00001B4918229847204601F06EFF01252BE153
:102A1000B0A1FF1F78D9FF1F70D3000088CF00003E
:102A2000E090FF1F80D8FF1FDC90FF1F94D0FF1F96
:102A30008CCF00009CCF0000A0D0FF1FA0CF0000D3
:102A4000A8CF0000ACCF000089D4FF1FBCCF00008E
:102A5000C4CF0000DCCF0000E0CF0000F0CF0000CA
:102A6000F8CF000004D000000CD0000018D0000007
:102A70001CD000008D488E4903F09AFD68BB4FF0D2
:102A8000000802AD45F8088D8A4CD4F8E037E0180C
:102A9000894E0C3031466A4601AB03F05BFDD4F839
:102AA000E027019B1344C4F8E037DDF80090CDF82F
:102AB0000080E0180C3031466A4601AB03F04AFD55
:102AC000D4F8E027019B1344C4F8E0375FFA89F09B
:102AD000009900F02BFF0125C6E07448774903F008
:102AE00067FD70BB4FF0000802AD45F8088D714CD2
:102AF000D4F8E037E018704E0C3031466A4601AB2E
:102B000003F028FDD4F8E027019B1344C4F8E03714
:102B1000DDF80090CDF80080E0180C3031466A46B0
:102B200001AB03F017FDD4F8E027019B1344C4F870
:102B3000E0375FFA89F09DF8001000F0B1FE012542
:102B400092E05A485E4903F033FD002866D15D4E9D
:102B500031685D4C20465D4BB1FBF3F10A22002346
:102B600001F0D2FE23685B68204659490522984748
:102B70002368DFF894815B6820464146012298472C
:102B80003268544BB2FBF3F21823B2FBF3F1204648
:102B900003FB11210A22002301F0B6FE23685B68C3
:102BA00020464D490622984723685B6820464146E7
:102BB0000122984732684EF66023B2FBF3F33C25BE
:102BC000B3FBF5F1204605FB11310A22002301F089
:102BD0009BFE23685B68204640490822984723688B
:102BE0005B68204641460122984732684FF47A7369
:102BF000B2FBF3F3B3FBF5F1204605FB11310A22DA
:102C0000002301F081FE23685B68204634490822D6
:102C10009847204601F068FE012525E02348314908
:102C200003F0C6FC40B928482F49FDF74BFC01F0E2
:102C3000FDFD00BE012517E01C482C4903F0B8FC3F
:102C400090B9214C23685B682046274904229847A5
:102C5000204601F049FE01F0E9FD0A2000F080FF66
:102C6000234A244B1A6001253D44B5B9114A136823
:102C70009B68104602F2F5310C329847114B1A68E6
:102C80001D4B1B68D21A1D4B1B689A420AD90023A0
:102C90001B4A13601B4A136004E00A4B1A68164B68
:102CA0001A60EBE703B0BDE8F08300BF89D4FF1FD3
:102CB00038D0000094D0FF1F48D0000050D0000052
:102CC00060D0000080D8FF1F78D9FF1F005C260568
:102CD00068D0000080EE360074D000007CD0000088
:102CE00088D0000094D000009CD00000A4D0000048
:102CF0000400FA050CED00E00C92FF1F6487FF1F33
:102D0000B0A1FF1F0492FF1F70D000002DE9F04317
:102D100083B005460E46924B1B68002B00F0648280
:102D2000904C23685B6820468F49052298472368AA
:102D30008E4F5B682046394601229847284603F0AB
:102D400045FD024623685B6820462946984723686C
:102D50005B6820463946012298472046314601F0FB
:102D60000FFE204601F0C0FD814B1B6813F0010FE0
:102D70000AD17F4800F07AFD30B17E4B1A687E4B55
:102D80001A607B4800F078FD7C4BD3F8E83733B10C
:102D9000784B1A68784B1B68D31AF92B26D9002276
:102DA000764BC3F8E42721E0D4F8E4576B1CC4F851
:102DB000E43701F02DFC25442873D4F8E437E218F9
:102DC0001673B3F57A7F13D1664C23685B6820468F
:102DD0006B490D229847204601F086FD674B002283
:102DE000C3F8E4271A7383F8F523E9E1634C00265E
:102DF00001F05AFC05460028D6D1604B1B7B0A2BFC
:102E000000F0DE815D4B5B7B0A2B00F0D9815B4BD0
:102E1000D3F8E437002B00F0D381584A1344DB7A0F
:102E20000A2B0DD00D2B0BD0D2F8E8371BB9514B24
:102E30001A68514B1A600122504BC3F8E827BFE1D2
:102E40004E4B0022C3F8E827C3F8E0279B6853B134
:102E500044484C49FEF728FB484B9B681BB141484E
:102E60004949FDF72FFB454CD4F8E037E01804F250
:102E7000F5360C304549324601AB03F06BFBD4F814
:102E8000E027019B13440133C4F8E037224652F88F
:102E90000C3B5B68204631469847074630463C4924
:102EA00003F086FB58B92F4C23685B6820463949EC
:102EB0000F229847204601F017FD012576E136489C
:102EC000364903F075FB58B9264C23685B682046E9
:102ED000334915229847204601F006FD012565E19A
:102EE0002D48304903F064FB58B91E4C23685B68D9
:102EF00020462D490C229847204601F0F5FC01257B
:102F000054E12548294903F053FB58B9154C23686F
:102F10005B68204626490A229847204601F0E4FCD7
:102F2000012543E11C48234903F042FB28B90D4821
:102F30002149FDF7C7FA012538E117481F4903F079
:102F400037FB00283ED1074C23685B6820461C49AC
:102F500018229847204601F0C7FC012526E100BF52
:102F6000B0A1FF1F78D9FF1F84D3000088CF0000D5
:102F7000E090FF1F80D8FF1FDC90FF1F94D0FF1F41
:102F80008CCF00009CCF0000A0D0FF1FA0CF00007E
:102F9000A8CF0000ACCF000089D4FF1FBCCF000039
:102FA000C4CF0000DCCF0000E0CF0000F0CF000075
:102FB000F8CF000004D000000CD0000018D00000B2
:102FC0001CD000008A488B4903F0F2FA68BB4FF02E
:102FD000000802AD45F8088D874CD4F8E037E018BA
:102FE000864E0C3031466A4601AB03F0B3FAD4F892
:102FF000E027019B1344C4F8E037DDF80090CDF8DA
:103000000080E0180C3031466A4601AB03F0A2FAAA
:10301000D4F8E027019B1344C4F8E0375FFA89F045
:10302000009900F083FC0125C0E07148744903F069
:10303000BFFA70BB4FF0000802AD45F8088D6E4C2A
:10304000D4F8E037E0186D4E0C3031466A4601ABDB
:1030500003F080FAD4F8E027019B1344C4F8E0376A
:10306000DDF80090CDF80080E0180C3031466A465B
:1030700001AB03F06FFAD4F8E027019B1344C4F8C6
:10308000E0375FFA89F09DF8001000F009FC012597
:103090008CE057485B4903F08BFA002866D15A4E02
:1030A00031685A4C20465A4BB1FBF3F10A220023F7
:1030B00001F02AFC23685B682046564905229847A0
:1030C0002368DFF888815B682046414601229847E3
:1030D0003268514BB2FBF3F21823B2FBF3F12046F6
:1030E00003FB11210A22002301F00EFC23685B6818
:1030F00020464A490622984723685B682046414695
:103100000122984732684EF66023B2FBF3F33C2568
:10311000B3FBF5F1204605FB11310A22002301F033
:10312000F3FB23685B6820463D49082298472368E3
:103130005B68204641460122984732684FF47A7313
:10314000B2FBF3F3B3FBF5F1204605FB11310A2284
:10315000002301F0D9FB23685B682046314908222F
:103160009847204601F0C0FB01251FE020482E496A
:1031700003F01EFA40B925482C49FDF7A3F901F0E8
:1031800055FB00BE012511E01948294903F010FA4A
:1031900060B91E482549FDF795F901F047FB0A2063
:1031A00000F0DEFC234A244B1A6001253D44B5B9EA
:1031B000114A13689B68104602F2F5310C329847A9
:1031C000114B1A681D4B1B68D21A1D4B1B689A4283
:1031D0000AD900231B4A13601B4A136004E00A4B00
:1031E0001A68164B1A60EBE703B0BDE8F08300BF26
:1031F00089D4FF1F38D0000094D0FF1F48D00000B2
:1032000050D0000060D0000080D8FF1F78D9FF1F89
:10321000005C260568D0000080EE360074D0000007
:103220007CD0000088D0000094D000009CD000002A
:10323000A4D000000400FA050CED00E00C92FF1F82
:103240006487FF1FB0A1FF1F0492FF1F70D0000012
:103250002DE9F04383B00546884617469C4B1B6812
:10326000002B00F085829B4C23685B6820469A49BE
:10327000062298472368994E5B6820463146012212
:103280009847284603F0A2FA024623685B68204666
:103290002946984723685B682046314601229847B3
:1032A000204641460A22002301F02EFB23685B687A
:1032B00020463146012298472046394601F060FBFE
:1032C000204601F011FB192000F04AFC844B1B68DA
:1032D00013F0010F0AD1824800F0C8FA30B1814BD7
:1032E0001A68814B1A607E4800F0C6FA7F4BD3F80B
:1032F000E83733B17B4B1A687B4B1B68D31AF92B29
:1033000026D90022794BC3F8E42721E0D4F8E4570A
:103310006B1CC4F8E43701F07BF925442873D4F81A
:10332000E437E2181673B3F57A7F13D1694C23683A
:103330005B6820466E490D229847204601F0D4FA7A
:103340006A4B0022C3F8E4271A7383F8F523FBE1E4
:10335000664C002601F0A8F905460028D6D1634B3B
:103360001B7B0A2B00F0F081604B5B7B0A2B00F08B
:10337000EB815E4BD3F8E437002B00F0E5815B4A2C
:103380001344DB7A0A2B0DD00D2B0BD0D2F8E83783
:103390001BB9544B1A68544B1A600122534BC3F8A3
:1033A000E827D1E1514B0022C3F8E827C3F8E02712
:1033B0009B6853B147484F49FEF776F84B4B9B68E3
:1033C0001BB144484C49FDF77DF8484CD4F8E03730
:1033D000E01804F2F5360C304849324601AB03F0F0
:1033E000B9F8D4F8E027019B13440133C4F8E0375F
:1033F000224652F80C3B5B68204631469847074608
:1034000030463F4903F0D4F858B9324C23685B6822
:1034100020463C490F229847204601F065FA0125D5
:1034200088E13948394903F0C3F858B9294C236871
:103430005B682046364915229847204601F054FA29
:10344000012577E13048334903F0B2F858B9214CEF
:1034500023685B68204630490C229847204601F0DB
:1034600043FA012566E128482C4903F0A1F858B930
:10347000184C23685B68204629490A229847204651
:1034800001F032FA012555E11F48264903F090F872
:1034900058B9104C23685B68204623490A22984794
:1034A000204601F021FA012544E117481F4903F0A5
:1034B0007FF800283ED1074C23685B6820461C49F2
:1034C00018229847204601F00FFA012532E100BF8B
:1034D000B0A1FF1F78D9FF1F94D3000088CF000050
:1034E000E090FF1F80D8FF1FDC90FF1F94D0FF1FCC
:1034F0008CCF00009CCF0000A0D0FF1FA0CF000009
:10350000A8CF0000ACCF000089D4FF1FBCCF0000C3
:10351000C4CF0000DCCF0000E0CF0000F0CF0000FF
:10352000F8CF000004D000000CD0000018D000003C
:103530001CD000009048914903F03AF868BB4FF066
:10354000000802AD45F8088D8D4CD4F8E037E0183E
:103550008C4E0C3031466A4601AB02F0FBFFD4F8CA
:10356000E027019B1344C4F8E037DDF80090CDF864
:103570000080E0180C3031466A4601AB02F0EAFFE9
:10358000D4F8E027019B1344C4F8E0375FFA89F0D0
:10359000009900F0CBF90125CCE077487A4903F097
:1035A00007F870BB4FF0000802AD45F8088D744C69
:1035B000D4F8E037E018734E0C3031466A4601AB60
:1035C00002F0C8FFD4F8E027019B1344C4F8E037A9
:1035D000DDF80090CDF80080E0180C3031466A46E6
:1035E00001AB02F0B7FFD4F8E027019B1344C4F805
:1035F000E0375FFA89F09DF8001000F051F90125DD
:1036000098E05D48614902F0D3FF002866D1604E22
:103610003168604C2046604BB1FBF3F10A22002375
:1036200001F072F923685B6820465C4905229847DF
:103630002368DFF8A0815B68204641460122984755
:103640003268574BB2FBF3F21823B2FBF3F120467A
:1036500003FB11210A22002301F056F923685B685D
:10366000204650490622984723685B682046414619
:103670000122984732684EF66023B2FBF3F33C25F3
:10368000B3FBF5F1204605FB11310A22002301F0BE
:103690003BF923685B682046434908229847236822
:1036A0005B68204641460122984732684FF47A739E
:1036B000B2FBF3F3B3FBF5F1204605FB11310A220F
:1036C000002301F021F923685B682046374908226E
:1036D0009847204601F008F901252BE02648344997
:1036E00002F066FF70B92B4C23685B6820463149B5
:1036F00004229847204601F0F7F801F097F800BE41
:10370000012517E01C482C4902F052FF90B9214CCA
:1037100023685B682046274904229847204601F029
:10372000E3F801F083F80A2000F01AFA234A244B48
:103730001A6001253D44B5B9114A13689B681046CB
:1037400002F2F5310C329847114B1A681D4B1B6879
:10375000D21A1D4B1B689A420AD900231B4A1360D8
:103760001B4A136004E00A4B1A68164B1A60EBE719
:1037700003B0BDE8F08300BF89D4FF1F38D000003C
:1037800094D0FF1F48D0000050D0000060D000004F
:1037900080D8FF1F78D9FF1F005C260568D0000085
:1037A00080EE360074D000007CD0000088D000008D
:1037B00094D000009CD00000A4D000000400FA05C2
:1037C0000CED00E00C92FF1F6487FF1FB0A1FF1FEC
:1037D0000492FF1F70D00000054B01225A600022A6
:1037E0009A60C3F8E42703491960C3F8E8277047D3
:1037F00094D0FF1F48CF0000024B1A6801321A60B4
:10380000704700BF80D8FF1F08B50D4C236813F424
:10381000802F01D000F0F6FA236813F4806F01D0F6
:1038200000F010F8236813F4006F01D000F00AF8DC
:10383000236813F4805FE9D000F004F8E6E700BFE6
:103840003480044008B5FFF7DFFF00BF1022014BB2
:103850001A80704700200540704700BF024A136875
:1038600018441060184670476887FF1F0078D0F131
:10387000010038BF0020704701230370704700BF6C
:10388000044B00221A6004490A60044A10601022A6
:103890001A60704714D0034004D0034000D00340A6
:1038A00021281ED80F4B53F8303093F8802212F0A5
:1038B000FF0F08D019B1012283F880207047012240
:1038C00083F800217047074B03EBC000436821B128
:1038D0001A6842F003021A6070471A6822F0020266
:1038E0001A607047CCD3000021281CD80E4B03EB84
:1038F000C0035B68012908D10B4A52F8302082F8D6
:1039000080124FF4A2721A607047074A52F83020B2
:10391000002082F8800219B94FF480721A60704753
:1039200040F203121A607047CCD3000010B5044671
:1039300028280FD15D4B1B780B2B03D8C3F10C0348
:10394000994003E00C2B84BF0C3B1941084601F061
:1039500017FA10BD554B1B78012202FA03F000291B
:1039600008DC20460021FFF79BFF20460121FFF7DE
:10397000BBFF10BD0A46884208D820460121FFF748
:103980008FFF20460121FFF7AFFF10BDE01EC0B240
:10399000012806D84648006800FB011222FA03F30A
:1039A00010E0202C01D0192C06D14248006800FB01
:1039B000022222FA03F305E03F48006800FB0112EF
:1039C00022FA03F3E01E1D2864D8DFE800F0474E1A
:1039D000402B63631D2463636363636363636332C8
:1039E000390F16635C63636363636355334A136023
:1039F00040F24442324B1A6010BD324A136040F22A
:103A00004442314B1A6010BD304A136040F24442C8
:103A10002F4B1A6010BD2F4A136040F244422E4BC8
:103A20001A6010BD2D4A136040F244422C4B1A60BC
:103A300010BD2C4A136040F244422B4B1A6010BD5B
:103A40002A4A136040F24442294B1A6010BD294AA9
:103A5000136040F24442284B1A6010BD274A13609D
:103A60004FF45172264B1A6010BD264A13604FF472
:103A70005172254B1A6010BD244A13604FF45172E5
:103A8000234B1A6010BD234A13604FF45172224B2E
:103A90001A6010BD20467F29D4BF00210121FFF705
:103AA000FFFE20460121FFF71FFF10BD6C87FF1F9F
:103AB0000890034008800B400880034010800340BA
:103AC00004B004401880034008B004402080034044
:103AD0000CB004402880034010B004403080034004
:103AE00010C004403880034014C0044040800340AC
:103AF00018C00440488003401CC00440109003409C
:103B000030900440189003403490044010800B40E3
:103B100048A0044018800B404CA0044072B60C4BE7
:103B20001B680C4A12680C49096862B611F0806F74
:103B300002D0322B88BF0132C3F5BB33FF330749B4
:103B4000A1FB03039B094FF47A7000FB023070471E
:103B500018E000E080D8FF1F04ED00E0ABAAAAAA9D
:103B600038B50546FFF7DAFF044665B1FFF7D6FF23
:103B7000001BB0F57A7F03D3013D04D004F57A74BD
:103B800000F0D8FFF2E738BD10B5254B4FF4000226
:103B90001A604FF080721A604FF000721A604FF096
:103BA00080621A604FF000621A6000201D4B18609E
:103BB0004BF6FF710433196028231B4A1360083247
:103BC0001360083213600832136008321360083241
:103BD000136008321360083213600922134C22600C
:103BE00004F58054043420600434216004342360DC
:103BF00008342360143C226004F5FE240434206061
:103C00000B4801600B490B6008310B600A4B1A60CE
:103C100001F02CF80420FFF7A3FF00F06BFC10BDAF
:103C200008E100E0048003400C8003400080034072
:103C300008800B400C800B4000800B4030B40E4BD2
:103C40001B7843F002020D4C04EBC20460600C4888
:103C5000007800280CBF8824C82444EA0141074D9D
:103C600045F8321080F00100054A107083F001031E
:103C7000014A137030BC7047ECD8FF1F0080FF1F53
:103C800065D9FF1F10B4431E032B11D872B60A4A20
:103C900052F8230050B14268074941F82320074AEF
:103CA00032F813400188611A22F8131062B600E05E
:103CB00000205DF8044B7047DCD8FF1FC0D9FF1F00
:103CC000013803280DD872B6074B53F820302BB1BA
:103CD000002001305B68002BFBD100E0002062B6C1
:103CE00070470020704700BF30D9FF1F38B572B64B
:103CF00001231B491B4C5A1812F8012C12F0080F13
:103D000024D09A0054F832506DB9164B03EBC2011F
:103D100008304860144943F83210144B1A78013ABD
:103D20001A7062B638BD42F0010254F832506DB9D3
:103D30000C4B03EBC201083048600D4943F83210C8
:103D40000A4B1A78013A1A7062B638BD0133052B56
:103D5000D1D162B60022054B1A7000F02FFC38BD9D
:103D600000D500000080FF1F880040005AD9FF1FC7
:103D7000C800400010B4431E032B37D8400140F068
:103D800010001C4A104472B61B4AD25C032A09D8A0
:103D9000DFE802F019021B050830022216E00830A5
:103DA000042213E0154A52F823201AB9134A42F8A4
:103DB000231003E0124A52F823205160104A42F8BF
:103DC000231062B612E0032200E005220A4CE254FE
:103DD00001F10803436000F00803002B0CBF8823A7
:103DE000C8230A8843EA0243036062B65DF8044BC5
:103DF000704700BF0080FF1F98D8FF1F30D9FF1FFA
:103E000040D9FF1F2DE9F84FA34CDFF8E092DFF80F
:103E1000E0A2DFF8E0B22578EDB215F0040F1DD076
:103E20009E4B1B7813F0FF0F16D09D4B1B7803F0B1
:103E3000FF022BB1531EDBB2994A137003B900BEC7
:103E4000984B1B7803F0FF0233B1531EDBB2954A47
:103E500013700BB900F01CFD0423237015F0080F3C
:103E600000F0DC8299F80030DBB21D0940F01D82C1
:103E70008D4D9E0805EBC6035A6855F83630C3F3DE
:103E80008303013B0C2B00F20C82DFE813F0C70127
:103E9000C7010A020A020A020A020A020A02E4012D
:103EA0000A020A020A020D00804913680B60526878
:103EB0004A607F4A45F8362000227E490A607A49E6
:103EC0000A618A6101217C4A11709BB240F28162D1
:103ED000934218D8B3F5D06F2ED2B3F5817F00F09E
:103EE0001E8106D8802B00F0C980822B00F0CC8088
:103EF00062E140F20232934200F02681B3F5A06FF6
:103F000000F05E8158E142F22102934200F082818A
:103F100007D8B3F5086F00F0AB80B3F5106F11D080
:103F20004AE142F22122934200F0418142F22132E1
:103F3000934200F045813FE1604B5D68002D40F009
:103F4000188130E1594B9A78544B1A70564D05F14F
:103F500080062B6A13F0800F03D0686A083800F0DF
:103F60002DFB0835B542F4D1DFF88C8100263746A9
:103F7000534AB05828B1456800F020FB0DB12846DF
:103F8000F9E700234E4973504E4AB3504E4BF05858
:103F900028B1456800F012FB0DB12846F9E700236F
:103FA00049497350494AB35028F8023F484BFB5CDB
:103FB000023B032B0AD8DFE803F0020602060022C8
:103FC000434BDA5502E00122414BDA550137043602
:103FD000102ECDD100223F4B1A7001253E4EDFF846
:103FE0001C81314F05EB080313F8013C06F8043B34
:103FF00013F0080F2DD000F0C1FA48B1A90007EB6B
:10400000451200F108035360344A47F8312007E0B5
:10401000AB00002247F833202E4B1A7801321A7079
:1040200000F0ACFA58B1AB0043F0010307EBC30159
:1040300000F108024A601E4A47F8332009E0AB004D
:1040400043F00103002247F83320224B1A78013253
:104050001A70AA0042F00201002347F8313042F002
:10406000030247F8323001351D4B9E42BAD116E2A9
:104070000A4B1B781B4D2B700127A6E0194D00231E
:104080002B706B700227A0E0084B9B88042B37D95C
:104090000F22154B1A70BDE08020074064D9FF1F26
:1040A000EDD8FF1F66D9FF1F0080FF1F50D9FF1FEB
:1040B000C800400084D8FF1F65D9FF1F04D5000049
:1040C000DCD8FF1F88D8FF1F30D9FF1F40D9FF1F42
:1040D00098D8FF1F5AD9FF1FC4200740880040000E
:1040E000D42007405CD9FF1FC02007409020074024
:1040F0009420074098200740BED9FF1F00D500003C
:104100009E4A0021117051709D4A12F8233013F01D
:10411000020F58D0994D01232B70022755E0994B7F
:104120009B8803F07F02042A02DC964A52881AB167
:104130000F22934B1A706DE0914A12F8231021F070
:10414000020102F82310AAE18E4B9B8803F07F0244
:10415000042A02DC8B4A52881AB10F22884B1A704B
:1041600058E0874A12F8231041F0020102F82310A8
:1041700095E1844B5E889F88834BA3F10C02114626
:1041800033F80C0CB04209D133F80A0CB84205D10F
:10419000360A032E0CBF2F78178916E00D690C33F1
:1041A0000C32002DEBD10F22754B1A7032E0754B9B
:1041B0009A78764B1A7072E10F22714B1A7029E0CF
:1041C00000273D4601E002276C4D6E4BDB889F4285
:1041D00028BF1F46402F34BF3E4640262846314662
:1041E000FFF72CFD3544BF1B03D13F2E00F25C814D
:1041F00010E0402F34BF3E46402628463146FFF7A8
:104200001DFD3544BF1B01D13F2E03D9604B1D60FE
:10421000604B1F8001238AF8003042E0594B198817
:1042200042F22103994212D15B4BD81D12F8011BB7
:1042300003F8011F8342F9D1584B1B68862B02D12A
:104240000F22574B1A7000200146FFF7F7FC554B21
:1042500045F8363025E04E4B1E68BEB14D4FB7F8DD
:104260000080B8F1400F34BF45464025304629460E
:10427000FFF7E4FCC5EB08039BB23B800BB9402D74
:1042800001D1354400E00025414B1D603D4B1B88AA
:10429000B3F5A06F05D13B4B00225A709B788BF889
:1042A000003001238AF80030B5E03F4E9F0806EB4E
:1042B000C708D8F80420A2F10800013DEDB213F0C0
:1042C000080F47D000F07AF9384B53F825304BB33C
:1042D0005A68364941F8252003F10802C8F804203D
:1042E000334A525D032A12D8DFE802F002060A0EB2
:1042F00003212F4A51550AE002212D4A515506E06B
:1043000005212B4A515502E00421294A515518F044
:10431000080F0CBF8822C8221B8842EA034346F8D4
:10432000373078E0224B5B5D032B0BD8DFE803F0DE
:104330007373020600221E4B5A556CE001221C4B7F
:104340005A5568E018F0080F0CBF02220322184BE0
:104350005A5560E056F837301B0C22F8083C002B09
:1043600051D0002322F8063C42F8043C114B53F88C
:1043700025300BBB0F4B43F8250021E05CD9FF1F14
:10438000C020074050D9FF1F10D5000074D9FF1F6F
:1043900084D8FF1F58D9FF1FC7D9FF1FC8D9FF1FD7
:1043A000EDD8FF1FC80040000080FF1F30D9FF1F5D
:1043B00098D8FF1FDCD8FF1F3F4B53F825305860BB
:1043C0003D4B43F825003D4B33F8151032F8082CCF
:1043D0000A4423F8152000F0D1F860B100F1080379
:1043E000C8F8043018F0080F354B364A08BF13469A
:1043F00046F837300FE0002346F83730324B1A7852
:1044000001321A7007E018F0080F2D4B2D4A08BF33
:10441000134646F8373008232370FCE415F0010FEB
:1044200022D02A4902230B700022294B1A70294BF3
:1044300024481860284C5C6098602848D8601A614D
:104440009A610D20264B1870FF2326480370083808
:10445000037018300270244A13709F22234B1A7085
:1044600001230B70BDE8F88F15F0800F05D00D22E9
:104470001B4B1A708022403B1A7015F0020F06D0B9
:10448000184B1A78D2B21A700222083B1A7015F033
:10449000100F0ED01022164B1A70BDE8F88F0020B6
:1044A0000146FFF7CBFBB5E628460021FFF7C6FB28
:1044B000B0E6BDE8F88F00BF88D8FF1FC0D9FF1F46
:1044C000C8004000880040005AD9FF1F94200740D0
:1044D000ECD8FF1F0080FF1F9CD8FF1FF0D8FF1FE4
:1044E000C0200740882007408C20074084200740D8
:1044F0008020074008B500F081FC00231B491A46C4
:104500005A50C81842600833882BF9D1184B1A68E2
:1045100042F480221A60154BC3F30721154A11702B
:10452000C3F30741143211701B0E04321370FF23C2
:10453000343A137008321370783A137001238432BE
:10454000137000216C3211707C3A137070220A4B88
:104550001A704FF40072A3F241331A60102203F173
:10456000C04303F5C8231A7008BD00BF0080FF1FB9
:10457000348004409C20074049E400E072B60D4BB3
:104580001A68B2FA82F30B2B02D962B60020704788
:104590004FF00041D94022EA010206490A6062B6A2
:1045A000054903EBC303DB00C8180022CA50426070
:1045B000704700BF7087FF1F0084FF1F08B50F4BB7
:1045C000C31A0F4AA2FB03131B090B2B14D80D4A65
:1045D00012783AB10C4A127812F0FF0F02D0FFF7AE
:1045E00085FB08BD72B6094A4FF0004121FA03F37A
:1045F00011681943116062B608BD00BF0084FF1F37
:10460000398EE3385AD9FF1F64D9FF1F7087FF1F07
:1046100010B5134B1B6853B9124B1B7813F0FF0FE7
:1046200018D00320FFF72EFB0D4B1860A8B10C4BE0
:10463000186843885A1C03441C7A03889A4206D39C
:10464000FFF7BCFF0022064B1A60204610BD4280D7
:10465000204610BD4FF0FF3010BD4FF0FF3010BDB1
:1046600070D9FF1F64D9FF1F08B50D4B1B6883B9B4
:104670000C4B1B7813F0FF0F08D00320FFF702FB51
:10468000074B186028B94FF0FF3008BD4FF0FF30DE
:1046900008BD034B1B685A881344187A08BD00BF35
:1046A00070D9FF1F64D9FF1F044B9888044B1B6807
:1046B0001BB11A885B88D31A18447047C0D9FF1FF2
:1046C00070D9FF1F2DE9F04704460122374B1A70BD
:1046D0000E46002964D0DFF8E080DFF8E0909A46CB
:1046E000334FD8F8003083BB99F8003013F0FF0F38
:1046F00006D100222D4B1A704FF0FF30BDE8F08735
:104700004AF2F9250420FFF7DBFA07280AD801232B
:104710008AF80030FFF732FFC8F80000A8B900237C
:104720008AF80030013D01D03B7833B10122204BA3
:104730001A704FF0FF30BDE8F08700F0FBF999F8F0
:10474000003013F0FF0FDDD1D3E700233B70D8F822
:1047500000104A88C2F14005AE4238BF354602F12A
:1047600008030B442A444A80761B3DB1254414F8C3
:10477000012B03F8012BAC42F9D100E025464B8810
:104780003F2B07D940230B800420FFF7F3FA0023C7
:10479000C8F800300522074B1A700EB12C46A0E76E
:1047A0000020024B1870BDE8F08700BF67D9FF1FDB
:1047B0006CD9FF1F66D9FF1F68D9FF1F64D9FF1F7F
:1047C00000B583B002AB03F8010D18460121FFF7D5
:1047D00079FF03B05DF804FB08B50122104B1A7095
:1047E000104B1B6893B9104B1B7813F0FF0F09D0C7
:1047F0000420FFF765FA072804D8FFF7BFFE094B2E
:10480000186018B90020064B187008BD054B1B68CE
:104810005888C0F140000022014B1A7008BD00BF4B
:1048200067D9FF1F68D9FF1F64D9FF1F10B5144B4C
:104830001B7813F0FF0F21D00122124B1A70124B7C
:10484000196851B10024114B1C704B880B80042057
:10485000FFF790FA0C4B1C600DE0FFF78FFE01464E
:1048600030B10022094B1A700420FFF783FA02E0EE
:104870000122064B1A700022024B1A7010BD00BFB5
:1048800064D9FF1F67D9FF1F68D9FF1F66D9FF1FB3
:1048900008B50E4B1B7813F0FF0F16D10C4B19689F
:1048A00041B14B880B800420FFF764FA0022084BCB
:1048B0001A6008BDFFF762FE014618B10420FFF739
:1048C00059FA08BD0122034B1A7008BD67D9FF1FB2
:1048D00068D9FF1F66D9FF1F08B5FCF733FAFCF74C
:1048E00039FA00F027F9FAE700B583B0054B1B88C9
:1048F000ADF8043003685B6801A90222984703B051
:104900005DF804FBDCD40000F0B58BB0164622B98C
:1049100003681B68C9B298472FE0012A08BF0A261E
:1049200021B930228DF82520212417E02124374693
:10493000B1FBF6F506FB1515EDB22246092D94BF25
:1049400030353735EDB20DF1280E724402F8245C93
:10495000B1FBF7F111B1013CE4B2E9E733B1013C3D
:10496000E4B20AAB23442D2203F8242C03685B68CD
:1049700001A92144C4F1220298470BB0F0BD00BF49
:1049800008B50029BABF49422D2300230A22FFF7A8
:10499000BBFF08BDFFFFFFFF2DE9F04F85B081464B
:1049A00016461F469DF838801046194600220023FF
:1049B00000F092FE28B107F100431F464FF0010AB4
:1049C00001E04FF0000AB8F1000F6ED04FF0000B7D
:1049D0000022414B3EA5D5E9004510461946224626
:1049E0002B4600F007FC02460B460BF1010B5FFA69
:1049F0008BF18845F1D82AE03E46204629465246AA
:104A00005B4600F0F7FB04460D4600F08DFEC0B299
:104A1000771CFFB204AB1E4400F1300306F8083CDB
:104A200000F082FB02460B462046294600F02EFA93
:104A300004460D464745DFD101E04FF00108D9F8A3
:104A400000305B68484602A9424698473CE0304641
:104A5000394600F01DFA04460D4600F065FE064694
:104A600000F052FB02460B462046294600F00EFAA3
:104A700004460D46484631460A225346FFF744FF96
:104A800001902E238DF80830B8F1070F34BF43464C
:104A90000723002BD1D003F101085FFA88F8012623
:104AA0004FF0000ADFF834B0A7E73046394600225D
:104AB000094B00F0EDF900F037FE014648460A22A6
:104AC0005346FFF721FF0190019805B0BDE8F08F34
:104AD000000000A09999B93F0000E03F0000244089
:104AE00008B5FFF7E1FD08BD08B5FFF791FD08BD6A
:104AF00008B5FFF7B9FD08BD08B5FFF797FE08BD7B
:104B000008B50846FFF75CFE08BD00BF08B50846BB
:104B10001146FFF7D7FD08BD044B00221A714FF470
:104B20007A7199601A73024A1A60704778D9FF1F28
:104B3000E8D40000704700BF844641EA000313F048
:104B400003036DD1403A41D351F8043B40F8043B94
:104B500051F8043B40F8043B51F8043B40F8043B57
:104B600051F8043B40F8043B51F8043B40F8043B47
:104B700051F8043B40F8043B51F8043B40F8043B37
:104B800051F8043B40F8043B51F8043B40F8043B27
:104B900051F8043B40F8043B51F8043B40F8043B17
:104BA00051F8043B40F8043B51F8043B40F8043B07
:104BB00051F8043B40F8043B51F8043B40F8043BF7
:104BC00051F8043B40F8043B403ABDD2303211D397
:104BD00051F8043B40F8043B51F8043B40F8043BD7
:104BE00051F8043B40F8043B51F8043B40F8043BC7
:104BF000103AEDD20C3205D351F8043B40F8043B97
:104C0000043AF9D2043208D0D2071CBF11F8013B94
:104C100000F8013B01D30B8803806046704700BF5A
:104C2000082A13D38B078DD010F003038AD0C3F169
:104C30000403D21ADB071CBF11F8013B00F8013B4B
:104C400080D331F8023B20F8023B7BE7043AD9D30A
:104C5000013A11F8013B00F8013BF9D20B780370DF
:104C60004B7843708B7883706046704760223A4B74
:104C70001A70E12201331A70384B1B78082B10D1BF
:104C8000012203F1804303F56C331A601323344986
:104C90000B6001F5FF2101F2FC710A60314A1360DB
:104CA0001FE00A2B0DD139222F4B1A6013232C49F8
:104CB0000B6001F5FF2101F2FC710A60294A1360C3
:104CC0000FE00C2B0CBF35223D22274B1A6012231C
:104CD00023490B6001F5FF2101F2FC710A60214AB2
:104CE0001360224B1B7833B10123214A136002F574
:104CF0000022136005E000231D4A136002F5002224
:104D000013601C4B1B78012B06D880231A4A1360B2
:104D100002F5002213601AE0042B06D88423164AF9
:104D2000136002F50022136011E0082B06D88523DA
:104D3000114A136002F50022136008E0102B94BFA3
:104D4000862387230C4A136002F500221360012298
:104D50000A4B1A70704700BF004007407487FF1F5E
:104D60000CB003400CB00B4008B0034089D9FF1FC2
:104D700020B003407587FF1F24B0034088D9FF1F70
:104D8000094B1A6842F480521A60084B1B781BB119
:104D90008022074B1A7002E0C022054B1A7080F384
:104DA0000C00044B188070472C80044089D9FF1FE9
:104DB00021C00C4000C00C4030B40023B0FBF2F422
:104DC00002FB14041D46092C94BF30343734E4B27E
:104DD000CC54B0FBF2F008B10133EFE70D440022F0
:104DE0006A70934207DD885CCC5C8C54C8540132F5
:104DF000013B9A42F7DB084630BC704700B585B0EE
:104E000072B61B4B70221A7041211A4A11700F2181
:104E1000013A117080221A701A46137813F0800F2D
:104E2000FBD0154B186862B6144B98429CBF00EB40
:104E30008000400001A90A22FFF7BEFF9DF8043060
:104E40007BB908E001A9595C31B19180023201338C
:104E50000A2BF7D100E0002301335B00084A1370EE
:104E600003E0074A53800123ECE705B05DF804FB3B
:104E70000000024007000240080002407F969800B0
:104E80000488FF1F81F0004102E000BF83F000436F
:104E900030B54FEA41044FEA430594EA050F08BFD5
:104EA00090EA020F1FBF54EA000C55EA020C7FEA99
:104EB000645C7FEA655C00F0E2804FEA5454D4EB16
:104EC0005555B8BF6D420CDD2C4480EA020281EAE0
:104ED000030382EA000083EA010180EA020281EA18
:104EE0000303362D88BF30BD11F0004F4FEA01316A
:104EF0004FF4801C4CEA113102D0404261EB410179
:104F000013F0004F4FEA03334CEA133302D05242FE
:104F100063EB430394EA050F00F0A780A4F10104BA
:104F2000D5F1200E0DDB02FA0EFC22FA05F28018F4
:104F300041F1000103FA0EF2801843FA05F35941DA
:104F40000EE0A5F120050EF1200E012A03FA0EFC59
:104F500028BF4CF0020C43FA05F3C01851EBE37183
:104F600001F0004507D54FF0000EDCF1000C7EEBA0
:104F700000006EEB0101B1F5801F1BD3B1F5001FDE
:104F80000CD349085FEA30004FEA3C0C04F10104FD
:104F90004FEA445212F5800F80F09A80BCF1004F26
:104FA00008BF5FEA500C50F1000041EB045141EAA8
:104FB000050130BD5FEA4C0C404141EB010111F4A9
:104FC000801FA4F10104E9D191F0000F04BF014654
:104FD0000020B1FA81F308BF2033A3F10B03B3F132
:104FE00020020CDA0C3208DD02F1140CC2F10C02C2
:104FF00001FA0CF021FA02F10CE002F11402D8BF20
:10500000C2F1200C01FA02F120FA0CFCDCBF41EAEB
:105010000C019040E41AA2BF01EB0451294330BDBA
:105020006FEA04041F3C1CDA0C340EDC04F1140497
:10503000C4F1200220FA04F001FA02F340EA03006E
:1050400021FA04F345EA030130BDC4F10C04C4F1B4
:10505000200220FA02F001FA04F340EA0300294694
:1050600030BD21FA04F0294630BD94F0000F83F4DE
:10507000801306BF81F480110134013D4EE77FEAC1
:10508000645C18BF7FEA655C29D094EA050F08BF0D
:1050900090EA020F05D054EA000C04BF19461046EE
:1050A00030BD91EA030F1EBF0021002030BD5FEA32
:1050B000545C05D14000494128BF41F0004130BD5A
:1050C00014F580043CBF01F5801130BD01F00045AE
:1050D00045F0FE4141F470014FF0000030BD7FEA21
:1050E000645C1ABF194610467FEA655C1CBF0B461C
:1050F000024650EA013406BF52EA033591EA030F33
:1051000041F4002130BD00BF90F0000F04BF00212A
:10511000704730B54FF4806404F132044FF000055D
:105120004FF0000150E700BF90F0000F04BF0021D6
:10513000704730B54FF4806404F1320410F000453C
:1051400048BF40424FF000013EE700BF42004FEA37
:10515000E2014FEA31014FEA02701FBF12F07F43B4
:1051600093F07F4F81F06051704792F0000F14BFB1
:1051700093F07F4F704730B54FF4607401F00045F5
:1051800021F0004120E700BF50EA010208BF70474C
:1051900030B54FF000050AE050EA010208BF704741
:1051A00030B511F0004502D5404261EB41014FF4AA
:1051B000806404F132045FEA915C3FF4DCAE4FF0AE
:1051C00003025FEADC0C18BF03325FEADC0C18BF95
:1051D000033202EBDC02C2F1200300FA03FC20FAE6
:1051E00002F001FA03FE40EA0E0021FA02F1144433
:1051F000C1E600BF70B54FF0FF0C4CF4E06C1CEA48
:1052000011541DBF1CEA135594EA0C0F95EA0C0FBC
:1052100000F0DEF82C4481EA030621EA4C5123EA2F
:105220004C5350EA013518BF52EA033541F480115E
:1052300043F4801338D0A0FB02CE4FF00005E1FB11
:1052400002E506F00042E0FB03E54FF00006E1FB5B
:1052500003569CF0000F18BF4EF0010EA4F1FF049E
:10526000B6F5007F64F5407404D25FEA4E0E6D41DE
:1052700046EB060642EAC62141EA55514FEAC520EF
:1052800040EA5E504FEACE2EB4F1FD0C88BFBCF56B
:10529000E06F1ED8BEF1004F08BF5FEA500E50F11C
:1052A000000041EB045170BD06F0004646EA0101E2
:1052B00040EA020081EA0301B4EB5C04C2BFD4EB14
:1052C0000C0541EA045170BD41F480114FF0000E0D
:1052D000013C00F3AB8014F1360FDEBF002001F07B
:1052E000004170BDC4F10004203C35DA0C341BDCF5
:1052F00004F11404C4F1200500FA05F320FA04F0C7
:1053000001FA05F240EA020001F0004221F00041FA
:1053100010EBD37021FA04F642EB06015EEA430E6D
:1053200008BF20EAD37070BDC4F10C04C4F120059D
:1053300000FA04F320FA05F001FA04F240EA020050
:1053400001F0004110EBD37041F100015EEA430E21
:1053500008BF20EAD37070BDC4F1200500FA05F241
:105360004EEA020E20FA04F301FA05F243EA0203C0
:1053700021FA04F001F0004121FA04F220EA0200CF
:1053800000EBD3705EEA430E08BF20EAD37070BD15
:1053900094F0000F0FD101F00046400041EB0101F5
:1053A00011F4801F08BF013CF7D041EA060195F0D7
:1053B000000F18BF704703F00046520043EB030391
:1053C00013F4801F08BF013DF7D043EA060370477E
:1053D00094EA0C0F0CEA135518BF95EA0C0F0CD089
:1053E00050EA410618BF52EA4306D1D181EA0301CF
:1053F00001F000414FF0000070BD50EA410606BFC9
:105400001046194652EA430619D094EA0C0F02D10D
:1054100050EA013613D195EA0C0F05D152EA033652
:105420001CBF104619460AD181EA030101F0004170
:1054300041F0FE4141F470014FF0000070BD41F0B9
:10544000FE4141F4780170BD70B54FF0FF0C4CF493
:10545000E06C1CEA11541DBF1CEA135594EA0C0FB2
:1054600095EA0C0F00F0A7F8A4EB050481EA030EFF
:1054700052EA03354FEA013100F088804FEA0333E6
:105480004FF0805545EA131343EA12634FEA0222B4
:1054900045EA111545EA10654FEA00260EF0004175
:1054A0009D4208BF964244F1FD0404F5407402D2C7
:1054B0005B084FEA3202B61A65EB03055B084FEA58
:1054C00032024FF480104FF4002CB6EB020E75EB55
:1054D000030E22BFB61A754640EA0C005B084FEA7D
:1054E0003202B6EB020E75EB030E22BFB61A7546FA
:1054F00040EA5C005B084FEA3202B6EB020E75EB45
:10550000030E22BFB61A754640EA9C005B084FEABC
:105510003202B6EB020E75EB030E22BFB61A7546C9
:1055200040EADC0055EA060E18D04FEA051545EAB8
:1055300016754FEA06164FEAC30343EA52734FEA61
:10554000C2025FEA1C1CC0D111F4801F0BD141EADA
:1055500000014FF000004FF0004CB6E711F4801F3F
:1055600004BF01430020B4F1FD0C88BFBCF5E06F1F
:105570003FF6AFAEB5EB030C04BFB6EB020C5FEA2F
:10558000500C50F1000041EB045170BD0EF0004E84
:105590004EEA113114EB5C04C2BFD4EB0C0541EAB6
:1055A000045170BD41F480114FF0000E013C90E6B3
:1055B00045EA060E8DE60CEA135594EA0C0F08BF77
:1055C00095EA0C0F3FF43BAF94EA0C0F0AD150EA76
:1055D00001347FF434AF95EA0C0F7FF425AF104609
:1055E00019462CE795EA0C0F06D152EA03353FF431
:1055F000FDAE1046194622E750EA410618BF52EAAE
:1056000043067FF4C5AE50EA41047FF40DAF52EA81
:1056100043057FF4EBAE12E74FF0FF3C06E000BF1E
:105620004FF0010C02E000BF4FF0010C4DF804CD2B
:105630004FEA410C7FEA6C5C4FEA430C18BF7FEAEB
:105640006C5C1BD001B050EA410C0CBF52EA430C19
:1056500091EA030F02BF90EA020F0020704710F199
:10566000000F91EA030F58BF994208BF90422CBF28
:10567000D8176FEAE37040F0010070474FEA410C21
:105680007FEA6C5C02D150EA013C07D14FEA430C3F
:105690007FEA6C5CD6D152EA033CD3D05DF8040BB0
:1056A000704700BF8446104662468C4619466346E2
:1056B00000E000BF01B5FFF7B7FF002848BF10F1B9
:1056C000000F01BD4DF808EDFFF7F4FF0CBF0120FE
:1056D00000205DF808FB00BF4DF808EDFFF7EAFF7A
:1056E00034BF012000205DF808FB00BF4DF808ED35
:1056F000FFF7E0FF94BF012000205DF808FB00BF2A
:105700004DF808EDFFF7CEFF94BF012000205DF8B3
:1057100008FB00BF4DF808EDFFF7C4FF34BF0120C0
:1057200000205DF808FB00BF4A0011D212F50012FC
:1057300011D20DD56FF47873B3EB62520ED44FEAE9
:10574000C12343F0004343EA505323FA02F0704769
:105750004FF00000704750EA013002D14FF0FF30A7
:1057600070474FF0000070474FEA4102B2F1E0434A
:1057700024BFB3F5001CDCF1FE5C0DD901F0004C38
:105780004FEAC0024CEA5070B2F1004F40EB830088
:1057900008BF20F00100704711F0804F21D113F1B4
:1057A0003872BCBF01F00040704741F480114FEAED
:1057B0005252C2F11802C2F1200C10FA0CF320FA76
:1057C00002F018BF40F001004FEAC1234FEAD32393
:1057D00003FA0CFC40EA0C0023FA02F34FEA4303FD
:1057E000CCE77FEA625307D150EA01331EBF4FF086
:1057F000FE4040F44000704701F0004040F0FE40A1
:1058000040F40000704700BF80F0004002E000BF9D
:1058100081F0004142001FBF5FEA410392EA030F9B
:105820007FEA226C7FEA236C6AD04FEA1262D2EBE5
:105830001363C1BFD218414048404140B8BF5B42EA
:10584000192B88BF704710F0004F40F4000020F083
:105850007F4018BF404211F0004F41F4000121F099
:105860007F4118BF494292EA030F3FD0A2F10102E3
:1058700041FA03FC10EB0C00C3F1200301FA03F121
:1058800000F0004302D5494260EB4000B0F5000F44
:1058900013D3B0F1807F06D340084FEA310102F103
:1058A0000102FE2A51D2B1F1004F40EBC25008BFB5
:1058B00020F0010040EA03007047490040EB00007F
:1058C00010F4000FA2F10102EDD1B0FA80FCACF1AE
:1058D000080CB2EB0C0200FA0CF0AABF00EBC250AD
:1058E00052421843BCBFD0401843704792F0000F9B
:1058F00081F4000106BF80F400000132013BB5E7EE
:105900004FEA41037FEA226C18BF7FEA236C21D063
:1059100092EA030F04D092F0000F08BF08467047C8
:1059200090EA010F1CBF0020704712F07F4F04D196
:10593000400028BF40F00040704712F100723CBFA9
:1059400000F50000704700F0004343F0FE4040F4D3
:10595000000070477FEA226216BF08467FEA236391
:105960000146420206BF5FEA412390EA010F40F47C
:10597000800070474FF0000304E000BF10F00043C8
:1059800048BF40425FEA000C08BF704743F09643AF
:1059900001464FF000001CE050EA010208BF7047CA
:1059A0004FF000030AE000BF50EA010208BF704751
:1059B00011F0004302D5404261EB41015FEA010C66
:1059C00002BF84460146002043F0B64308BFA3F15E
:1059D0008053A3F50003BCFA8CF2083AA3EBC25340
:1059E00010DB01FA02FC634400FA02FCC2F120025F
:1059F000BCF1004F20FA02F243EB020008BF20F096
:105A00000100704702F1200201FA02FCC2F12002FB
:105A100050EA4C0021FA02F243EB020008BF20EAF0
:105A2000DC7070474FEA4002B2F1FE4F0FD34FF0E7
:105A30009E03B3EB12620DD94FEA002343F00043FB
:105A400010F0004F23FA02F018BF404270474FF0A9
:105A50000000704712F1610F01D1420205D110F030
:105A6000004008BF6FF0004070474FF000007047E3
:105A700070B50F4E0F4D761BB61007D0043D0024B5
:105A8000013455F8043F9847A642F9D10A4E0B4D10
:105A9000761B07F069FFB61008D0043D00240134DE
:105AA00055F8043F9847A642F9D170BD70BD00BFBC
:105AB00074D9000074D9000088D9000074D900009E
:105AC000024B0146186800F003B800BF488CFF1F66
:105AD0002DE9F04F01F10B05162D83B0064627D9AD
